:020000040100F9
:10000000107700212D3E000157AA0101193E000181
:10001000193E0001193E0001193E000100000000D8
:10002000000000000000000000000000F13E0001A0
:10003000193E000100000000913E0001193E000140
:100040005940000159400001594000015940000148
:100050005940000159400001594000015940000138
:10006000712301015940000159400001594000012C
:100070005940000159400001594000015940000118
:100080005940000159400001594000015940000108
:1000900059400001594000015940000159400001F8
:1000A00059400001594000015940000159400001E8
:0800B000594000015940000114
:1000B80053B94AB9002908BF00281CBF4FF0FF31C7
:1000C8004FF0FF3000F00CB8ADF1080C6DE904CE2C
:1000D80000F012F8DDF804E0DDE9022304B070470F
:1000E800704700BF10F8012B11F8013B012A28BF07
:1000F8009A42F7D0D01A70472DE9F04786468C46C9
:100108000846089E154674461946002B40F0C180E3
:100118008542B2FA82F245D94AB1C2F1200300FA07
:1001280002FC954094402EFA03F343EA0C0C4FEA84
:10013800154EA8B2230CBCFBFEF80EFB18CC08FB2E
:1001480000F943EA0C43994528D9EB1808F1FF3721
:1001580004D2994502D9A8F102072B44A3EB09035D
:10016800A4B2B3FBFEFC0EFB1C330CFB00F044EA0C
:100178000344A04214D92C190CF1FF3304D2A04235
:1001880002D9ACF102032C44241A43EA07401EB1F9
:10019800D440002334607360BDE8F0874746DDE74C
:1001A8006346F1E792BB431B01214FEA154EAFB2FC
:1001B800200CB3FBFEFC0EFB1C330CFB07F840EADB
:1001C8000343984561D9EB180CF1FF3004D29845E8
:1001D80002D9ACF102002B44A3EB0803A4B2B3FB91
:1001E800FEFC0EFB1C330CFB07F744EA0344A74252
:1001F8004DD92C190CF1FF3304D2A74202D9ACF126
:1002080002032C44E41B43EA0040C0E7C2F1200388
:100218009540944020FA03F12EFA03F34FEA154E65
:100228009040AFB20343B1FBFEFC0EFB1C10190C4F
:100238000CFB07F841EA0041884522D969180CF1FE
:10024800FF3004D2884502D9ACF102002944A1EB61
:1002580008019BB2B1FBFEFC0EFB1C110CFB07F75F
:1002680043EA01439F420ED9EB180CF1FF3104D247
:100278009F4202D9ACF102012B44DB1B41EA004149
:1002880093E76046E3E76146F7E76046A4E763461D
:10029800B8E7834206D916B9002108467CE7C6E9C3
:1002A80000E0F9E7B3FA83F78FB9834201D37245C7
:1002B80008D8BEEB020460EB030301209C461EB97C
:1002C800002169E73846FAE7C6E9004CF8E7C7F1C4
:1002D800200CBB400EFA07F522FA0CF42EFA0CF1AA
:1002E800BA401C4320FA0CF3B8404FEA14490143C2
:1002F8001FFA84FEB3FBF9F809FB18300B0C08FB56
:100308000EFA43EA00439A4540D9E31808F1FF3052
:1003180004D29A4502D9A8F102002344A3EB0A03A8
:1003280089B2B3FBF9F809FB183308FB0EFE41EA62
:1003380003418E452CD9611808F1FF3304D28E454C
:1003480002D9A8F10203214443EA0040A1EB0E01BF
:10035800A0FB02984145CE46434602D306D14D45FF
:1003680004D20138B9EB020E68EB0403002EA7D0C3
:10037800B5EB0E0261EB030101FA0CFC22FA07F35C
:10038800F9404CEA0303C6E9003199E74046C5E75E
:100398004346D9E7000000002DE9F8430F46D0E9AD
:1003A8000718856901EB08042F34A542164619D8A9
:1003B8001BA3D3E90023DFF87080A1FB0801FFF736
:1003C80077FE0346601BA0FB080123F07F4414A3BB
:1003D800D3E90023FFF76CFE20F07F403C603060DB
:1003E800BDE8F883DFF840900DA3D3E90023A5FB0F
:1003F8000901FFF75DFE0AA3D3E900230A21044699
:100408000A4824F07F44E8FB0901FFF751FE20F079
:100418007F403C603060BDE8F88300BFAFF30080E8
:100428008D49FD1A0700000000CA9A3B00166BF1BF
:10043800002800F050812DE9F04FAD4C8DB094F8B4
:100448005E2012F0010540F09A81FF23607EA376BA
:1004580000F0030011F00CFB94F85E00420726D46C
:10046800627F94F8293004EB8202166A04EB830356
:10047800D3F82C8086B131469D480AF0E9F83378E4
:100488005B0605D5062104F065FB002800F079819C
:10049800414697480AF0DCF8337813F00E0F40F025
:1004A800B28063698BB10C200DB0BDE8F08F2A468D
:1004B80004F15F01C0F3C00011F078FCFF28A076BA
:1004C800CED0284611F01AFBCAE707F0EDF88146AE
:1004D800002800F0678107F0F3F88246002800F052
:1004E8005E810AF0F9FC0546002800F05D814FF6B0
:1004F800FF738384C06E05F1100B002800F047815C
:1005080005F1600205F15C0104F030FB794B00272E
:10051800D3F8011095F87C21C5F87D11C5F8831131
:100528007F2185F8B61013F8011B28469B8801F037
:100538000101A5F88131A5F887314FF4C023C5F82A
:100548007031B5F8583061F3861223F4EF6323F065
:10055800070343F48C7343F00103A5F8583095F86A
:10056800373061F3C71203F03F0363F07F0385F868
:10057800373095F8723085F87C2123F0070385F829
:10058800723095F83C30C5E9127723F00F0385F8EF
:100598003C30EF66A5F8707085F839706F85C5F83E
:1005A8002E702F65A5F87671A5F86C710DF0B0F86E
:1005B80085F83871C5F83C910BF006F895F87C3150
:1005C80060F3020385F87C310BF004F895F87C3170
:1005D80060F3C50385F87C3195F8683105F1B800FA
:1005E80067F3410385F868310CF054FEC4E9159AA5
:1005F800C4F814B0C5E902772F702D6112F0DAFC47
:10060800002840F0C080237E0121C3F342030DF18E
:100618002B008DF82B3004F049FC024600285CD0F2
:1006280098F80110304609F0CDFD00253249334BCA
:10063800A0FB0101C01841F107012BA3D3E9002356
:10064800C4E902552570FFF733FDB4F85C706060AB
:1006580006F0FEF800F109083FB9357805F00F05F6
:10066800A5F10105B5FA85F56D09207E636865F386
:10067800000010F0010520764AD000200225204A0B
:1006880004930992019306941E4F10601E4A0BAE04
:100698000321059243462A46CDE9020000900797B8
:1006A80008960B9505F08EFF314607F097F8A0B92C
:1006B8000B954AF2D835154A434605920321012283
:1006C800CDE90300CDE90100079708960694009547
:1006D80005F040FF45E009F0C1BC6369002B3FF419
:1006E800E2AE09F077FCDEE68D49FD1A070000004E
:1006F800BC3B002132E4010100CA9A3B8C49FD1A37
:10070800B03B0021F969000145A20001299D0001C3
:100718004FF6FF7291214FF0020903922848294AA7
:10072800049303F24713069402951360A7FB000392
:1007380001FB0731244B09920793244B0BAE059319
:100748001DA3D3E90023CDF82C900896FFF7B0FC41
:100758000146434601914A4628460321009505F083
:1007680031FF314607F03AF80028B6D194F85E30E8
:1007780043F0010384F85E300AF08AF958B100208A
:1007880092E6122090E609F025FC03208CE605F19C
:100798006400E866B4E6012011F04CF9EFE748463A
:1007A80006F088FF07207FE6504606F08FFF484690
:1007B80006F080FFF6E700BF8D49FD1A070000002C
:1007C800002AE784B03B0021F969000145A2000135
:1007D80070B50446237E8AB0C3F342030D460DF17B
:1007E8002300012116468DF8233004F05FFB717851
:1007F8000246284609F0E6FC22A3D3E900231C4957
:100808001C4DA0FB01C11CEB050041F10701FFF7DE
:100818004FFC63680546984222D20022191A0291B9
:1008280002210192144A154BA21ACA40A3FB0232B4
:100838000023D2080A440991114909AE05911846C6
:100848000321CDE903330696D2B2009305F012FFD7
:10085800314606F0C3FF38B9656000200AB070BDA4
:10086800FBD90021EA1ADAE70C200AB070BD00BFF4
:1008780000CA9A3B8C49FD1ABC3B0021F712DA4B9F
:10088800F96900018D49FD1A070000000000000009
:1008980070B51B4C9DF8106094F83CC01CF0010525
:1008A80024D1E6462186912163F3420E400194F853
:1008B8002630F60000F0200C06F018064CEA060C6C
:1008C800104823F038034CEA030384F82630A2FBCF
:1008D800000384F83CE001FB023107A3D3E90023BD
:1008E800FFF7E6FB6063A063284670BD0C25284629
:1008F80070BD00BFAFF300808D49FD1A07000000EE
:10090800A8080021002AE78470B504469126124DF4
:1009180002844FEA411CA3FB05019DF810E006FB89
:1009280003114FEACE0EA37D0EF0180E0CF0200C2A
:100938004CEA0E0C23F038034CEA030C84F816C07A
:1009480003A3D3E90023FFF7B3FB606270BD00BFC8
:100958008D49FD1A07000000002AE7840000000006
:100968002DE9F047044690F83C0094F82630C0F38F
:10097800400060F386138CB004F1290184F8263016
:1009880005F0BAFF0027912194F82620238E5048BD
:1009980002F0790284F82620A3FB0002C4E902775A
:1009A80001FB032148A3D3E9002327702461FFF743
:1009B8007FFBA36B474D63630933984298BF034697
:1009C800A4EB0505C5F38715DFF80C918EBF6360AE
:1009D8006060676305EB450249F82230064605F07A
:1009E80037FF63694FEA450A00F10907002B4BD02E
:1009F8000DF12C089121AA4409EB8A034FF0000954
:100A08004FF0020A0993CDF820800694238E62687D
:100A18002F480492A3FB000201FB03212F4BCDF8C2
:100A28002CA007932E4BCDF80C90059326A3D3E961
:100A38000023FFF73DFB104619464FF47A72002356
:100A4800FFF736FB01460435EDB202913B46032120
:100A58002A4648460196CDF8009005F0B3FD414678
:100A680006F0BCFE60B994F83C3043F0010384F80A
:100A78003C3009F0C3FD08B300200CB0BDE8F08796
:100A88000C200CB0BDE8F0870DF12C08CDE90A3335
:100A98000320434661680AAA01F096FA0028A9D102
:100AA80009A3D3E900230B990E48A1FB0001FFF726
:100AB800FFFA0A9B20F07F471F449BE7504610F03F
:100AC800B9FFD9E7AFF300808D49FD1A0700000090
:100AD800002AE784A8080021403C0021F9690001A8
:100AE80085A8000100CA9A3B2DE9F04F05468BB056
:100AF8008B46012002219946144615F08BF80022F6
:100B080002218246012004F083F84FF4C8723E495E
:100B1800284604F00BF806463C4B0536F6B200931F
:100B280001214B4600203246019505F0FBFD10F0EF
:100B3800FD0F0ED040F6B403354A3649364819F051
:100B480009FC002383F31188BFF36F8F0323184632
:100B580002DF324BA4FB034829A3D3E90023204634
:100B68004146FFF7A5FA07222D4B20F07F47A7FB48
:100B7800033102FB0711E01A68EB01014FF47A72A6
:100B88000023FFF795FACDE900B70290089506957E
:100B9800696895F937402348049123494B4631EA5F
:100BA800240128BF01464FF6FE7405911F493246BD
:100BB800079100200121039405F0CCFC10F0FD0FF3
:100BC8000ED040F6C903124A1249134819F0C2FB65
:100BD800002383F31188BFF36F8F0323184602DFC6
:100BE800BAF1000F02D10BB0BDE8F08F012202214B
:100BF80010460BB0BDE8F04F04F00AB8AFF3008020
:100C08008D49FD1A07000000E808002109AE00011F
:100C1800A4D4010168D5010188CD010100CA9A3B1D
:100C28008D49FD1A750A0101290C0101A9AD0001C0
:100C38004FF6FF732DE9F04184688CB0A28C9A427C
:100C480045D0054620460DF059F82B7D012B00F0C4
:100C58004381022B00F03581002B00F0148194F8B9
:100C68003871002F40F031812B8ACDE90A77B4F82A
:100C78002E8094F937206BB3002AC0F28D810023AF
:100C8800A4F87231AB7CA68D03F003030136012B67
:100C9800B6B23AD0B4F87631002B00F02681B342D0
:100CA80040F28F8100229B1B9BB2062BA4F8763161
:100CB800E28540F2178194F937309342C0F2868179
:100CC800002325E020469DF827100AF0CDFD0CB042
:100CD800BDE8F081002AB8BF84F85D71AB7CA68DB1
:100CE80003F003030136012BB6B20ED0B4F872310B
:100CF800002BCFD0B34240F275819B1BA4F8723110
:100D0800B4F87631002BCAD102E00023A4F876317A
:100D180094F83C20314663F3820284F83C20204654
:100D28000DF127020CF030FD7430CBD0B4F87031DF
:100D38002BB1B34240F220819B1BA4F87031B4F868
:100D48006C312BB1B34240F20E819B1BA4F86C317D
:100D5800E58D17B9A84500F0FD800135ADB294F8CE
:100D6800B53013F0010131D1DDE90A030246002B49
:100D780040F00081002800F0EF8019461E46A28C42
:100D880024690090B848053201910590012100209E
:100D9800CDE9035702960694D2B205F06BFC10F029
:100DA800FD0F94D006F044FD844290D040F2825367
:100DB800AE4AAF49AF4819F0CDFA002383F3118842
:100DC800BFF36F8F0323184602DF80E794F93720BB
:100DD8006FF30003002A84F8B530C0F2A18094F8BC
:100DE8005800C0F3C00100F0070011F0FBFE94F8B2
:100DF800583003F00703032B00F2A08003F1280604
:100E0800F6005B10DE4094F85930B6F5A07F03F089
:100E1800070338BF4FF4A076032B00F2988003F144
:100E28002802D2005B10DA40B2F5A07F38BF4FF439
:100E3800A0720721E38B03F23F13034433441344A6
:100E48008D488E4AE3FB0021104685A3D3E9002391
:100E5800FFF72EF9666820F07F40864234BF811B79
:100E6800361A606038BF0026DDE90A0328BF002172
:100E78000246002B83D151EA000C80D1002E6BD0A2
:100E8800184619467BE794F8723003F01803182BBC
:100E98007FF4E5AE218DB4F86E218B1D9A42D2BF46
:100EA8001346931F5B1AB4F86A11C8BF9BB29942E4
:100EB80000F0B480A4F86A31A4F86C31A4F8702169
:100EC800CDE63D231F4684F83831394620460CB01C
:100ED800BDE8F0410AF0C8BC0023A4F87031A4F8BA
:100EE8006C31BCE601273B4612E7E28C42F21071F6
:100EF800052A8FBF40F2E2434FF4FA73013292B2EF
:100F080003FB02F2B4F8743101FB0323013BB3FB8A
:100F1800F2F39BB2A4F87631002B7FF4C0AEF7E66B
:100F280094F85900012100F0070011F05DFE94F8D3
:100F3800583003F00703032B7FF660AF94F859305D
:100F48004FF4296603F00703032B7FF668AF4FF4CD
:100F580029626EE73D4602E7002D48D00021104681
:100F68000E460B460BE700232046A4F86C310CF024
:100F7800ADFCEDE60E4602E706F0EAFB0146002866
:100F880038D00023A4F870311B23A28C0371C280CF
:100F9800006806F0ADFBD2E694F85D318BB3013BF7
:100FA80084F85D3104F1B80630460CF0B5F9002834
:100FB8003AD030460CF0B0F9002839D00023E38548
:100FC8005DE6082120460AF04FFC80E6B8F1000FE4
:100FD80014D1D4F860315A0813F0010336D1C4F89B
:100FE80060216DE63E2120460AF03EFC6FE6002FA8
:100FF800B4D16CE60123A4F87031A0E613460127AA
:1010080086E60AAA28460BA9FFF7C6F9DDE90A23EE
:101018001343C7D0237884F85D31C3E7B4F870115F
:1010280000297FF41CAE47E7FF200AF0B5FBC0E7B4
:101038000246D4E9170103F0B1FD0028BED194F8A7
:101048003C301B0744BF238DE38518E642F000427D
:101058001F46C4F8602143465AE600BFAFF300803C
:101068008D49FD1A0700000065AD0001A4D40101F7
:10107800B4D5010188CD010100CA9A3B8C49FD1AFB
:101088002DE9F04F87B0BDF84440CDE90432019412
:101098000378BDF84840BDF840B00294BDF84C80D4
:1010A8000446078E0091002B00F02D81013FBFB24E
:1010B80094F85800A7EB08039DB2C0F3C00100F0F4
:1010C8000700D4F8F490039511F08CFDE68C052EFA
:1010D80040F2208140F2E24A05FB06F6B6B24FF034
:1010E8009613E3619623BBF1050F238440F2048134
:1010F80094F8582002F00702032A40F2DB8094F8A3
:1011080059204FF4296302F00702032A00F2E38012
:1011180002F12801C900521021FA02F2B2F5A47FA7
:1011280038BF4FF4A4720721134400F2D5100344CA
:10113800854A86485D46E3FB0021104680A3D3E933
:101148000023FEF7B5FF40F2E24320F07F400AFBA0
:1011580006F203FB05F5531E2B44B3FBF5F31FFA08
:1011680083FA606005FB0AF08242564680F0B6803A
:101178007649801AA0FB010171A3D3E90023FEF789
:1011880097FF20F07F408144638DB4F8FC2013441E
:10119800984494F83730A8EB07084644DB0966857D
:1011A80000F0BF80236C039902FB033203FB01F1BB
:1011B8000B46A16C40F2E2470A44616C634E8A42D6
:1011C80094BFC3EB0203C3EB0103A36411F03CFF1C
:1011D800804694F85C01C0F3420011F037FF059B8C
:1011E800804407FB03F305FB08F8236508F574281A
:1011F800574B08F23F28A3FB08384FEA98430AFBED
:1012080003F02364A5EB0308A36C6A080344963A29
:10121800934228BF1346C4E911230023A0FB06010B
:10122800C4F8643146A3D3E90023FEF741FF049BC9
:10123800A9EB00094748A0FB033041A3D3E90023E9
:10124800800A07FB00F0A0FB0601FEF731FF20F043
:101258007F46019B29462385029B2046A4F87431CA
:10126800A4F826B00CF0CCFA3B4B218D2B44B3FBF1
:10127800F5F3881D9AB29042A4F86E2104D2C1F504
:101288007F41FA310A4492B2009BA4F86A2113B153
:101298000023A4F876314B46424631462046FFF7F4
:1012A80023FC94F8683143F0010384F8683107B0EF
:1012B800BDE8F08F02F12803DB005210D34094F808
:1012C8005920B3F5A47F02F0070238BF4FF4A47386
:1012D800032A7FF61DAF4FF4296224E7121A1B4830
:1012E800A2FB000116A3D3E90023FEF7E1FE20F0DC
:1012F8007F40A9EB000947E70BF101050A204FF4ED
:10130800FA73ADB223E7438D1F44B0F8FC301F4495
:10131800BFB2CDE6039B4FF4FA7A06FB0336B6B2AA
:10132800DDE6049B0948A846A3FB000104A3D3E912
:101338000023FEF7BDFE20F07F46013689E700BF97
:101348008D49FD1A070000008C49FD1A00CA9A3B16
:1013580083DE1B435917B7D17FC3C90100000000C2
:101368002DE9F04F04460B68D0F81E0095B0D3F86D
:1013780000A0267F638C1290487CADF84C30FF2883
:10138800C6F380138846154617680C908DF83F30D1
:101398007DD199461A4612AB93E803000DF1400B34
:1013A8001090ADF84410D4F800C0F6090AF16501B0
:1013B8005B4630460A91CDF82CC00AF011F90A991B
:1013C80000284CD197F87C310A9069F3C71366F36B
:1013D800861387F87C311098BBF80430C7F883016E
:1013E800A7F88731DAF8653005F12200C7F87D31B2
:1013F8008B88A7F88131E18D94F830302981AB7260
:10140800D4F82A3005216B60D4F83A30C5F8223078
:1014180094F83E3085F8263003F048FD95F82730DB
:1014280000F03F0060F3050385F8273094F83F305B
:101438000128C3F3040185F82810A18E03F01F03C7
:10144800E98289B20BD91B3303F01F030B2B06D893
:1014580040F67A43063989B299420A9A2AD9002273
:101468000126CAF8082095F82C30214662F30003BB
:1014780085F82C30E5680B98267106F02DF9294679
:1014880028682E7106F034F915B0BDE8F08F0DF11B
:10149800400B5A460DF13F010FF0C6FF9DF83F90F3
:1014A800267F09F102095FFA89F98DF83F9009F062
:1014B800010278E740F2E249D8F8003011465A6054
:1014C800E38E38462B83628EEB8A0A9209FB03F679
:1014D8000CF0AAF994F83F3097F85C215B0963F3A4
:1014E800430287F85C2111F0AFFD034697F85C01D1
:1014F8000D93C0F3420011F0A9FD0D9BCE4A0344A1
:1015080006FB03F303F5742303F23F23A2FB032333
:101518009B0C2B637308963B6B6394F83130314610
:1015280009FB03F36B64238F3846A7F874310CF07A
:1015380067F9C24BC24A3344B3FBF6F3C7F87821C4
:101548009AB2A7F86E21298B881D824204DDC1F565
:101558007F41FA310A4492B22346A7F86A216A68A1
:10156800C7F8602113F81C2FC2F34019DA0700F1FD
:1015780025814FF48073A3839AF81A0010F02CFD8C
:1015880004F12B03002800F01581626AC4F82B20AF
:10159800228D9A800C9BFF2B00F06A81BDF84C309D
:1015A8001298A4F82930C4F82500BBF80430109824
:1015B800A4F823309DF83F30C4F81F00A377EB8AC6
:1015C800384663862B8BA386B7F87431E38697F881
:1015D8005C31C3F3420384F8383009F089FC0346D0
:1015E8002146AB820B98E380D8F8044006F074F8E3
:1015F8001C23AA8AD4F800B0E2802371B9F1000F45
:1016080040F0F3802146584684F81C9006F070F8A4
:1016180095F8483003F00703032B00F2C88003F164
:1016280028094FEAC9095B1029FA03F9B9F5A47F1B
:1016380038BF4FF4A47995F8490000F00700032853
:1016480000F2B28000F12804E4004310DC40B4F555
:10165800A47F38BF4FF4A474012111F0C5FA072103
:101668004FF0961304EB090C8346DFF8D891764CBB
:1016780000F2D5106044E0FB0941C5E903336CA3CF
:10168800D3E900232046FEF713FD034640F2E24467
:1016980023F07F437B602B6BDDF828C0F51AD8F860
:1016A8000C60002204FB0C640221012004F2B34404
:1016B800E41A03F0ADFA504608F084FF0246A4EBA2
:1016C8000B04A4FB0901144659A3D3E90023FEF730
:1016D800EFFC8146CDF804A0D8F808305B4A3A3BC5
:1016E800009229F07F49A21C01210020D2B24B446C
:1016F80005F018F8012800F085809AF81830DB0703
:101708006BD4384609F0F4FB4E4B0446A5FB035A4C
:1017180047A3D3E9002328465146FEF7C9FC06979C
:10172800D8F808300722A3F13A084FF4F8734FF0BD
:10173800000B08934649474B20F07F460791A6FBCC
:101748000331E81A444B02FB061105937B686AEBE8
:1017580001014FF47A72CDE903B30023FEF7A8FC28
:101768000534E4B202904346224601215846CDE9A9
:10177800009604F0EFFE10F0FD0F0DD040F2F113CB
:10178800364A3749374818F0E5FD8BF31188BFF31F
:101798006F8F0323184602DF01220221104603F04F
:1017A80037FA15B0BDE8F08F4FF4296454E74FF4C9
:1017B800296940E7C4F82B009880EBE6FD23274A07
:1017C8002949284818F0C6FD002383F31188BFF380
:1017D8006F8F0323184602DFCBE600230122184649
:1017E8001146009304F062FF8BE795F82730281D17
:1017F80043F0400385F827300FF00AFC4FF0010949
:101808002885FFE606F014F882453FF476AF4FF4DA
:101818002673124A1549134818F09CFD002383F3D8
:101828001188BFF36F8F0323184602DF65E700BFF7
:101838008D49FD1A0700000083DE1B437FC3C901E1
:10184800404B4C0000CA9A3B8C49FD1A350A0101ED
:10185800010A01018D49FD1A750A010168DA0101C1
:1018680068D5010188CD0101ECD10101C4DA01017B
:101878000022C4F82520A4F8292096E600000000DC
:101888002DE9F04F04468DB0BDF86850002016468B
:101898009B46CDE904549DF85C80BDF86090BDF886
:1018A80064A0069109F002F9002800F0658108F0AB
:1018B80001070446384605F00FF80390002F70D151
:1018C8005A463846169B039909F08AFE002840F0CC
:1018D8006481636904F1100208930792002B67D0B2
:1018E80063690BF001091D680793DDF81CA09AF8DD
:1018F8004800C0F3C00100F0070011F073F9DFF8E9
:1019080040E300F2CF3207217046BAF80E30DFF814
:1019180034C31344E3FB0C01C7A3D3E90023FEF748
:10192800C7FB034623F07F436B60304610F0C2F8D4
:10193800FF2384F8283094F827306FF3410384F8A4
:101948002730002E00F01C81A8F10203012B40F281
:101958002881DDE9052394F83C1004F1100068F3B0
:10196800420184F83C1094F8271069F3000184F8C8
:1019780027101699049D0968A16116998988A5847C
:10198800A18300210096FEF7BFFFA06311F012FBB0
:10199800002840F011812046FEF7E2FF0DB0BDE8B7
:1019A800F08F062103F0D6F8002889D11220F5E738
:1019B80005F07AFE0990002800F0738109F08CFA8E
:1019C8000546002800F06A81143003F085FA05F115
:1019D80010030793002840F01C81032105F118002B
:1019E80010F0BCFF4FF6FF73E86EA5F828A0A5F825
:1019F8002690AB84002800F01B8105F1600205F1F8
:101A08005C0103F0B3F87F234FF0000A85F8B63085
:101A1800B5F85830C5F86CA023F4EF6323F007033A
:101A280043F48C7343F00103A5F8583095F87230ED
:101A3800A5F870A023F0070385F87230A5F82AA04E
:101A4800C5F82EA005F132000FF08CFA95F8373062
:101A5800012160F3050385F837300DF12F0010F0F0
:101A68007DFF049B4FF4C022A5F8743140F2E24395
:101A780003FB09F9744B9DF82F104B44B3FBF9F3A2
:101A8800C5F87021714A85F839A0A2FB0102D20875
:101A980002EB4202A1EB820195F83720053102F0F2
:101AA8003F0285F8372095F83C2085F83810298DB5
:101AB80022F0070285F83C20881D9AB28242A5F8D8
:101AC80076A1A5F86CA1A5F86E2102DD063A521A96
:101AD80092B24FF0000AA5F86A2128460BF018FECA
:101AE800494628460BF08CFE099B85F838A1C5F8B5
:101AF8003C3109F069FD95F87C310BF0010960F380
:101B0800020385F87C3109F065FD95F87C3160F3B6
:101B1800C50385F87C3195F8683105F1B8006AF39A
:101B2800410385F868310BF0B5FB4FF0961295F834
:101B38007C31C5E9072269F3C713169A85F87C3109
:101B48001268DBB2C5F88321169A68F38613928867
:101B580085F87C31A5F88721039A1368C5F87D318B
:101B68009388A5F8813105F110036361C5E902AADC
:101B780085F800A02D61B8E60C200DB0BDE8F08F07
:101B880010F0E2FB00283FF4DFAE584632461699C3
:101B980010F00CF984F82800D6E60B200DB0BDE84B
:101BA800F08F00200FF0AAFF94F82730B84643F0D2
:101BB800020384F82730CCE66569EB6D73B140F217
:101BC8002143234A2349244818F0C4FB002383F304
:101BD8001188BFF36F8F0323184602DF05F1500108
:101BE80005F14C0002F0C6FF0646002838D02F68E1
:101BF800EE65D7F83C51002D41D0284605F05AFD36
:101C0800384609F06FF90023032063610DB0BDE881
:101C1800F08FC1230E4A11490F4818F09BFB089B0F
:101C280083F31188BFF36F8F0323184602DFD4E6CE
:101C380005F16400E866E0E68D49FD1A070000003A
:101C48008C49FD1A00CA9A3B7FC3C901ABAAAAAA4C
:101C5800F4DA010180D3010188CD010140CE0101F0
:101C680040F22343104A1149114818F073FB86F3D8
:101C78001188BFF36F8F0323184602DFB7E740F2DE
:101C88002A43094A09490A4818F064FB85F3118870
:101C9800BFF36F8F0323184602DFAEE7099805F0FC
:101CA80009FD07207AE600BFF4DA0101F4D4010146
:101CB80088CD0101000000002DE9F04F0446238D76
:101CC800077F8DB0406AADF82C30E307C7F3C01822
:101CD8000E4615460A90C7F3401700F10881002305
:101CE800A383B37C707C13F0010318BFD4F81E30B3
:101CF80004F12B021ABFC4F82B30638CC4F82B30C4
:101D0800FF28938004F1250904F11F0200F0E18007
:101D180004F11E010FF088FBA37FBDF82C200A9860
:101D28000233A377C4F82500A9F804203368D3F850
:101D380000A0EB8A63862B8BA386BAF82430E3864F
:101D480011F080F984F83800D5F80090484609F079
:101D5800CFF803460021AB824846E3800BF064FDD0
:101D680021462068746805F0B7FC1C23AA8AD4F8B9
:101D78000080E2802371002F40F0C9802146404650
:101D8800277705F0B5FC40F2E24395F84800B5F82E
:101D980016B0C0F3C00100F0070003FB0BFBF468AA
:101DA80010F020FF00220221A4EB0008012002F01D
:101DB8002FFF504608F05CFE5BA3D3E900235C4C80
:101DC8000546A8FB044820464146FEF771F9074638
:101DD800CDF804A0B368574A3A3B009227F07F47F2
:101DE8002A1D01210020D2B23B4404F09BFC10F0D4
:101DF800FD0F0ED040F241334F4A5049504818F079
:101E0800A9FA002383F31188BFF36F8F03231846C1
:101E180002DF4FF0000A0322012153465046CDF855
:101E280000A004F043FC484609F062F83EA3D3E959
:101E3800002305463E480535ABFB0001FEF738F99F
:101E480040F27131CDF81C90B66809913D4983463E
:101E580008913D4910460691D9F804104FF47A725A
:101E6800CDE904A119460023FEF722F90722374BD2
:101E7800CDE902B0A7FB033102FB0711E01A68EBBA
:101E880001014FF47A720023FEF712F93A3EEDB2DF
:101E9800019033462A4601215046009704F07AFB08
:101EA80010F0FD0F0DD040F27233234A2349244825
:101EB80018F050FA8AF31188BFF36F8F032318467E
:101EC80002DF0122022110460DB0BDE8F04F02F0FA
:101ED8009FBE0023BDF82C100A98C4F82530A9F835
:101EE800043084F81E80C4F81F0091801EE740F279
:101EF800BD23114A1649124818F02CFA002383F31F
:101F08001188BFF36F8F0323184602DFE7E695F8C1
:101F18002730281D43F0400385F827300FF078F864
:101F2800012728852AE700BF8D49FD1A0700000010
:101F380000CA9A3BF10B0101F4DA010168D50101ED
:101F480088CD0101F50B0101290C01018D49FD1A0C
:101F5800ECD10101000000000538C3B20F2B10D8E6
:101F680070B580B20D4608F0CBFF044638B190F941
:101F78003730002B07DA43682B60204670BD0020FD
:101F880070BD0020704790F858000D4EC0F3C00196
:101F980000F0070010F026FE07210A4A00F5B750A6
:101FA8001530E0FB0621104603A3D3E90023FEF712
:101FB8007FF820F07F43DFE78D49FD1A0700000016
:101FC80000CA9A3B8C49FD1A2DE9F04F0024FF27DF
:101FD800A24693B0CDE90E440894054616463C4601
:101FE800D046D3460B930B1D0DF140098DF8377081
:101FF8000A93634B00200593624B294603930FAB6A
:1020080001930EAB00930223CDF81890109304901F
:10201800334602900DF1370204F0C2FB022812D0B9
:10202800109BB3B9FF2C25D03368434522D0002F2D
:1020380052D0FF24013FFFB28DF83740D9E7294637
:10204800002004F0F3FB109B022BF8D0109B002B10
:10205800E8D040F2D9134C4A4C494D4818F07AF967
:10206800002383F31188BFF36F8F0323184602DF21
:10207800FF2CD9D19DF83700FF283CD011A9FFF7D4
:102088006BFF0028B5D09DF837000538C3B20F2B79
:1020980018D9FF2CDDF83880119B0AD051464046EC
:1020A800099304F0D7FB0A9B03EB0B029042099BB0
:1020B80023D89B460F9BC2469DF83740D6F8008030
:1020C800089396E780B208F01BFF0028E1D090F94A
:1020D8003730002BDDDA8CE740F2E1132A4A2C482E
:1020E8002C4918F037F987F31188BFF36F8F032352
:1020F800184602DF9DE7FF2C38D007212648ABFBA6
:10210800000301FB0B311CA3D3E90023FDF7D0FF2B
:10211800044600B13E340899204AA1F57423A3F57A
:102128001073934218D807211B48AAFB000301FB30
:102138000A3111A3D3E90023FDF7BAFF0021089A59
:10214800174BA3FB022304EB9344044408460B9B60
:102158001C6013B0BDE8F08F01F1E87303F5D433C8
:1021680003F5A5730AF1FF3A0893DCE76FF009015C
:10217800084613B0BDE8F08F00CA9A3B0000000083
:10218800110F0101150F010140DB010184DB010181
:1021980088CD01018CDB01018D49FD1ABFBDF07F9F
:1021A80083DE1B43000000002DE9F043C6683E496A
:1021B8007368D0E900971A68A7F57423A3F510731C
:1021C8008B42804683B007D907F1E87707F5D43703
:1021D80009F1FF3907F5A57773685168DD8A022090
:1021E80006F1100301AACDF80490FFF7EDFE0028D0
:1021F80050D10199A1EB09031B0238D4084649467E
:1022080004F028FB26A3D3E9002304464FF0070C6B
:102218002649A0FB01010CFB0411FDF749FF3469B5
:102228000444002C346109DB40F2E24305FB03F36C
:10223800A34230D2E41AA342FCD334610721D8F870
:1022480000301A48A3EB0903A3FB000201FB03219A
:1022580013A3D3E90023FDF72BFF154BA3FB073787
:10226800A0EB97402044306103B0BDE8F0834846B6
:1022780004F0F0FA0AA3D3E9002304464FF0070C50
:102288000A49A0FB01010CFB0411FDF711FF346999
:10229800241AC6E73469002CD0D103B0BDE8F08316
:1022A80000CA9A3B00000000BFBDF07F8D49FD1AAF
:1022B80083DE1B4300000000F0B5C4680546636870
:1022C80083B0002B68D112F013FE002012F06AFED2
:1022D8000021084612F042FE00222521082012F0B3
:1022E800C7FE494B01A8019312F0AEFE40F25B60B5
:1022F800464912F0B1FF237A20461A46C3F3420337
:1023080063F30612227211F0C3F810F01DF870BBC7
:10231800637A9B0721D127682E68384610F00AFC9B
:1023280003461E446A6806F10901012013F0E4F926
:1023380013F010FB204608F053F9014602313246EB
:102348003846C9B210F0F8FB054680BB204610F0AD
:1023580089FB90B9002003B0F0BD01200FF05EFBAF
:10236800024641780232007813F05EF9D3E7607ACA
:1023780010F0030018BF0120F0E740F22943244A77
:102388002449254817F0E6FF85F31188BFF36F8FBE
:102398000323184602DFDDE793F82C309A0792D022
:1023A80021461E4812F082FD12F0EAFED2E740F202
:1023B8001143174A1A49184817F0CCFF0721194B3F
:1023C8000026A5FB030301FB05310DA3D3E9002378
:1023D800FDF76EFE14490246144817F0BBFF86F35A
:1023E8001188BFF36F8F0323184602DF1048214678
:1023F80012F05CFD12F0C4FE6FF08B00ABE700BF7B
:1024080000CA9A3B00000000D6BE898E555555007B
:1024180060DF010170CF010188CD0101D12C0101DC
:1024280064CE01018D49FD1A10E00101E4DF0101CC
:1024380061300101000000002DE9F041C4688CB052
:1024480094F91630002BC0F20681636805460E46E3
:10245800002B40F0F580A37D6FF30003A37512F005
:1024680047FD002012F09EFD0021084612F076FD7F
:1024780000222521082012F0FBFD012005F08CFA2E
:102488000746002800F0CD8007F11C0012F020FE5E
:102498008B4B0BA80B9312F0D7FD8A4940F25B6077
:1024A80012F0DAFEA07DC0F34100253010F056FB93
:1024B8002146854812F0FAFCA37D9B0603D4636885
:1024C800002B00F0AB80962013F00AF900231A467F
:1024D8001946184613F054F80FF036FF002839D182
:1024E800A37D13F0180F5CD1D4F800802F68404604
:1024F80010F020FB07446A6807F10901002013F077
:10250800FBF813F027FA13F06BF8204608F0B8FA36
:102518000146043140463A46C9B210F00DFB8046E8
:10252800002840F09F8016B9636A002B52D1636877
:1025380043B1664B0122022100209D6002F09CFB02
:10254800002837D1204610F08DFAD0B900200CB001
:10255800BDE8F081A07DC0F3C0000FF05FFA074628
:102568000DF12B000FF05AFD804679783878BA1CA7
:1025780013F05AF8002241469DF82B0013F094FA04
:10258800B2E740F20B23524A5249534817F0E2FE91
:10259800002383F31188BFF36F8F0323184602DFEC
:1025A800D4E701200FF03AFA4178821C007813F042
:1025B8003BF899E740F20623454A4849464817F050
:1025C800C9FE002383F31188BFF36F8F03231846D6
:1025D80002DFB7E740F2F3120892414A00930792EC
:1025E800404A3B46059231460322CDE90366CDE9D0
:1025F8000166069403F0AEFF10F0FD0F97D04FF47C
:10260800FA73334A3849344817F0A4FE86F3118820
:10261800BFF36F8F0323184602DF88E712F0C6FF67
:102628005AE74FF4C5732A4A30492B4817F092FEEF
:1026380087F31188BFF36F8F0323184602DF23E760
:10264800636893F82C30D90705D4636893F82C3065
:102658009A077FF500AF2146254812F027FC12F0B3
:102668008FFD73E740F2E513194A22491A4817F01B
:1026780071FE0721204B0025A8FB030301FB08314D
:102688000DA3D3E90023FDF713FD1C4902461C489E
:1026980017F060FE85F31188BFF36F8F0323184688
:1026A80002DF1848214612F001FC12F069FD6FF0B4
:1026B8008B004CE7AFF3008000CA9A3B0000000093
:1026C800D6BE898E55555500B1270001D401002189
:1026D8001CE0010170CF010188CD010178CE010114
:1026E800293C0101D13C0101CCD20101ACDF01013F
:1026F800D12C010164CE01018D49FD1A68E0010168
:10270800E4DF0101013B010138B5044611F0A2F9EB
:10271800A37DA27DC3F34103013303F00303032B1D
:1027280008BF002363F3420214BF03F125002520EC
:10273800A27510F013FA63680BB1236953B904F05A
:1027480087F801460020033113F050F8BDE83840FF
:1027580013F000B913F094F8054604F079F801462F
:102768000020033113F042F813F0F4F813F088F85E
:10277800294604F06FF807210346094AA0FB020224
:1027880001FB032104A3D3E90023FDF791FC23698E
:102798001B1A236138BD00BF00CA9A3B0000000025
:1027A8008D49FD1A000000002DE9F04F8BB004465A
:1027B80012F03CFDC0B250B910F02AFA2146BE48CA
:1027C80012F074FB0BB0BDE8F04F12F0D9BC12F058
:1027D8004FFD054612F05CFF074612F063FF814685
:1027E80013F0C4F9064613F0A5F9824612F012FF59
:1027F800EDB2804612F0EAFE10F00AFA002DDDD0A4
:10280800012005F0C9F80546002800F05B8117F0A3
:10281800FF07F6B240F0E780002E40F0DE804FF070
:10282800FF093A464B463146204611F04FFB002837
:10283800C4D000232A7F61688DF823305FFA88F7B7
:1028480002F00F03002900F0F080616891F82C1065
:10285800880700F1EA80072BB0D0A17D090740F175
:102868004081002B40F0C8806B7F063B1F2BA5D80A
:10287800042005F091F80028A0D013F083F8636ACB
:10288800804643B940F27122238C02FB03F3B0FB6C
:10289800F3F203FB1208072123685A68874BA2FB4F
:1028A800030301FB023182A3D3E90023FDF700FCF7
:1028B8006FF4427C00EB0C031F3B62EB02024345C2
:1028C80072F10002FFF47AAF12F070FE63684846B6
:1028D80007930FF08FFBE37D8246990740F1DC8177
:1028E800002800F0D98183464FF0010812F0CEFC91
:1028F800CDE9028B804609AB049305F11E030193D1
:102908002B7F0022C3F38013204641460093012306
:1029180011F0F6FA404612F0E1FB12F073FC0028C1
:1029280040F0C7812146664812F0C0FA002F40F0F7
:10293800BA81626892F82C3043F0010382F82C3097
:10294800A37D43F08003A37505F042F84FF6FF72AC
:1029580017210746C280017195F81CE04346CEF363
:10296800401E00F11C0208F12008D3F800C05D6881
:102978009868D96810334345C2F800C05560906024
:10298800D16002F11002F0D11B6813603B7FBC607C
:102998006EF345133B7712F073FF002E08BF4FF01C
:1029A800FF093861099B87F819907B61E37D13F073
:1029B800020303D0BAF1000318BF0123BA7E63F300
:1029C8000002BA7605F004F8394603463868FB6019
:1029D8000BB0BDE8F04F05F029B85FFA8AF00FF0A8
:1029E80099FB81461DE7A07D5FFA89F1C0F3C0001D
:1029F8000FF01EFB814614E7012B40F082806A7FAE
:102A08000C2A7FF4DBAE194600232A7F2046019367
:102A1800CDF80090D20905F1240311F0A5F900289A
:102A28007FF426AF2B7F03F00F03002B69D16B7F58
:102A3800052B7FF6C3AE252B3FF6C0AEA27D02F074
:102A48002102202A09D16268002A00F0BA80052BE9
:102A58007FF6B4AE252B3FF6B1AE63682BB12B7F62
:102A680003F00F03072B7FF4A9AE03209DF8238002
:102A780004F092FF054600283FF4A0AE04F0A8FF3A
:102A88004FF6FF73EB8005232B71002F35D17F2084
:102A9800002E08BF4FF0FF09AB7E287668F341038C
:102AA80029462868AB7685F8199004F0BFFF85E6BB
:102AB80000CA9A3B00000000193B01018D49FD1A2C
:102AC800193D010140F2C723944A9549954817F0EA
:102AD80041FC85F31188BFF36F8F0323184602DF8B
:102AE80095E6B9F1FF0F8DF82490C2F380184BD00A
:102AF800227E91453FF4B5AE97E712F07BFDC0B258
:102B0800C6E7062B93D04521D94011F0010139D1F0
:102B1800012B10D16B7F0C2B7FF450AE2A7F0DF167
:102B2800230301932046CDF80090D20905F1240330
:102B380011F01AF908BB2B7F03F00F03042B7FF465
:102B48003DAE6B7F063B1F2B3FF638AEA37DDB0700
:102B58007FF534AE12F09AFB2B7F0278C3F3801313
:102B6800B3EBD21F7FF42AAE0622083005F11E010E
:102B780019F04EFE00287FF421AE6B7F002B7FF406
:102B88006CAF1BE66B7F62E705F11E0A51464046B3
:102B980009AA0FF07DFB00283FF444AFE37D03F062
:102BA800010343457FF43EAF5146062204F1080075
:102BB80019F02EFE00287FF435AF2B7F03F00F03AA
:102BC8004FE69620079212F08BFD079A104612F0F6
:102BD800C3FC032004F0E0FE804600283FF4EEAD7D
:102BE80004F0F6FE4FF6FF73A8F80630052388F8C0
:102BF8000430002F6DD17F23002E14BF4A46FF22D8
:102C080088F8183098F81A3041466FF3410388F86D
:102C18001A3088F81920D8F8000004F007FF12F0DD
:102C280035FB064603210C223378484661F303033B
:102C380033702B7F72703278C3F3801363F3C7123B
:102C480032700FF0D7F9E27D920746D5002844D0BC
:102C58003246317841F0400102F8021B0168C6F89B
:102C6800021083889380D5F81E303046B3606B8C91
:102C7800B38112F033FA12F0C5FA00283ED112F0EF
:102C880069FE2146A37D284843F00103A3750BB0D4
:102C9800BDE8F04F12F00AB994F8168004F1190B48
:102CA800C8F3801822E612F0A5FC079B83F8A6005B
:102CB8003FE640F2AF43194A1C491A4817F04AFB4D
:102CC800002383F31188BFF36F8F0323184602DFB5
:102CD80028E612F08FFCC3B28EE7A37D3278C3F3E7
:102CE800801363F38612334603F8022BD4F81920B5
:102CF800C6F80220B4F81D209A80B4E740F2335396
:102D0800064A0A49074817F025FB002383F3118870
:102D1800BFF36F8F0323184602DFB0E71CE0010101
:102D2800ACDF010188CD01012D3B0101B4DF0101B8
:102D38004FF6FF732DE9F041C46882B0A28A9A4227
:102D480000F0E180054611F0F9F92B89628BA38325
:102D58001A440023208C92B2104494F8271080B2B1
:102D6800461C26844E066383E28304F1220300F1A5
:102D7800A38001F03F0094F82810009004F1290086
:102D88000EF0FEF80646D4E90C31A28B002002FBB7
:102D98000333A26B276C1344E26B20648B4294BF0D
:102DA800D21852188A4228BF0A46616C94F84930F2
:102DB8003944C4E90E02616494F8622094F82C1036
:102DC800C3F3020363F3061112F0040284F82C1013
:102DD8007CD012F08DF8002012F0E4F8201D12F0DB
:102DE80033F92389A17A40F25B6043EA014112F08A
:102DF80033FA30460FF0B2FE21465D4812F056F81D
:102E0800A08912F06DFC94F8482094F84900C2F3A8
:102E1800C003002102F0070200F0070012F0B0FB27
:102E2800204611F053FA26682F6830460FF082FECC
:102E380003461F446A6807F10901002012F05CFC90
:102E4800804612F051FD002012F072FDE36B94F8F9
:102E5800490003F12F02636C012100F0070003EB26
:102E6800420512F04DF994F84930454403F0070340
:102E7800022B054428D0042B0CBF4FF4BC72282227
:102E880018460121154412F03DF9284412F00CFDB2
:102E980012F0A6FBA18A3A4605313046C9B20FF0B6
:102EA8004BFE0546002835D120460FF0DBFDD8B98A
:102EB800002002B0BDE8F0811A4601F03F03218DE1
:102EC8000EF0AAF806465EE71822D9E7D4E91301FE
:102ED80001F064FE00287FF47CAF94F8623043F080
:102EE800040384F8623074E74FF4B073214A22492E
:102EF800224817F02FFA85F31188BFF36F8F032349
:102F0800184602DFD4E721461D4811F0CFFF12F022
:102F180037F9CDE74FF4AB73164A1A49174817F03B
:102F280019FA0721184B0026A5FB030301FB0531FD
:102F38000DA3D3E90023FDF7BBF814490246144852
:102F480017F008FA86F31188BFF36F8F032318462A
:102F580002DF1048214611F0A9FF12F011F96FF0B5
:102F68008B00A6E7AFF3008000CA9A3B0000000080
:102F780079450101FCE0010170CF010188CD010113
:102F8800D12C010164CE01018D49FD1A50E10101E6
:102F9800E4DF0101AD2C01014FF6FF73F0B5C46801
:102FA80085B0A28A9A4200F08E80054611F0C6F8D4
:102FB8002B89628BA3831A440023208C92B210447D
:102FC80094F8271080B2461C26844E066383E28359
:102FD80004F1220360D401F03F0094F82810009017
:102FE80004F129000DF0CCFF0646204603A911F094
:102FF80057FA039B94F862101A7861F3C3021A70A7
:10300800039A94F862301178C3F3400363F38201A2
:10301800117011F06DFF002011F0C4FF201D12F097
:1030280013F82389A17A40F25B6043EA014112F068
:1030380013F930460FF092FD2046039911F006FA75
:1030480021463B4811F032FFE08912F049FB94F821
:10305800490000F0070012F07FFA27682E6838460A
:103068000FF068FD03461E446A6806F10901012055
:1030780012F042FB12F06EFCA18A32460531384646
:10308800C9B20FF059FD054620BB20460FF0EAFCF7
:1030980050B9002005B0F0BD1A4601F03F03218D5C
:1030A8000DF0BAFF0646A0E74FF48273214A224981
:1030B800224817F04FF985F31188BFF36F8F032368
:1030C800184602DFE5E721461D4811F0EFFE12F031
:1030D80057F8DEE7FA23174A1A49184817F03AF959
:1030E8000721194B0026A5FB030301FB05310EA39D
:1030F800D3E90023FCF7DCFF14490246144817F013
:1031080029F986F31188BFF36F8F0323184602DF6E
:103118001048214611F0CAFE12F032F86FF08B0009
:10312800B8E700BFAFF3008000CA9A3B0000000078
:10313800654301015CE1010170CF010188CD010106
:10314800D12C010164CE01018D49FD1AACE10101C8
:10315800E4DF0101AD2C0101014815F011BC00BFED
:103168004C03002138B5094D4FF0FF324FF0FF33C3
:10317800284615F0D3FB044601F03CFC10B120466C
:1031880001F058FA16F0E4F8EEE700BF7C030021DE
:103198000346F7B5064613F8010B0D46022801F160
:1031A800FF322DD0052845D0012855D1022A53D900
:1031B8000322CDE900320022002301F0E3FB04469C
:1031C800002849D0F378043D9D4204D003B0BDE8FF
:1031D800F04001F02FBA00F10C07384617F0FCFC5C
:1031E800854201D92046F1E72A46311D384617F0B5
:1031F800CAFC2146194803B0BDE8F04018F02FBFBB
:10320800032A29D904200022CDE90030002301F047
:10321800B9FB044600B3B6F80330053D9D42D5D14D
:1032280004F10C07384617F0D7FC8542DAD82A464D
:10323800711DDBE7032A0FD904221020CDE90032E3
:103248000022002301F09EFB044628B1B6F80330A3
:10325800053DC3F30D03E1E703B0F0BD7C03002196
:1032680070B5214888B001F0D1FB00220023CDE9D8
:10327800062300236FF00802CDE90133CDE90323CB
:1032880000934FF48062194B19491A4815F040FE13
:103298001949184818F0EDFF184817F0A9F9184A05
:1032A8001849164817F0B2F94FF0FF324FF0FF33C4
:1032B800154815F09FFB0C4E124D4FF0FF324FF0A2
:1032C800FF33304615F02AFB04462846228AE16877
:1032D80017F0B0F9002803DB204601F0ABF9ECE762
:1032E80016F036F8F1E700BF640300216D310001E4
:1032F800906000211804002108E401017CCA010142
:1033080010000021802400214C030021014B1B6880
:10331800184700BF2C000021014B1860704700BF00
:103328002C00002130B585B004460D46102200213E
:10333800684619F065FA02238DF80230044B2A46D4
:1033480021466846019316F031FC05B030BD00BF38
:103358001533000180B505460E461746984616F007
:103368009BF8034619F0E8FA0446DFF8189042463D
:1033780049F8003039463046A84754F8090000F0AB
:103388006DFD00BF080000002DE9F047058B0446DD
:103398002807904611D4022905F0070540F0CC8093
:1033A800204616F0FFFF78B10138218B042811D888
:1033B800DFE800F0C2106D85950001290CBF45F0CB
:1033C800100545F02005258388F31188BFF36F8F1A
:1033D800BDE8F08701F0070AAA4500F0A58000279C
:1033E800B9463E46A368002B00F0BC8041F00801B6
:1033F800218388F31188BFF36F8FA168002900F03B
:10340800BA800D68002900F0B6803346524620463F
:10341800D1F80480C047002D76D02B6829461D4678
:10342800F0E701F007035A1F012A1BD8002221F0F8
:103438000701062B276889B2C4E9002209D13B4657
:1034480003E0628B013262831B68002BF9D141F0E3
:1034580002012046218316F0A5FF00287AD041F00A
:10346800200176E0042B0AD121F0070189B2204619
:10347800218316F097FF10B141F020012183218BA1
:1034880001F0070AAA454FD00027B946AAE72369E1
:1034980021F0070141F00601062DD3F800902183A1
:1034A8002DD1B9F1000F3FD041F00801218388F3F5
:1034B8001188BFF36F8F20463949C84729E021F0AA
:1034C8000701236941F0040189B2042DD3F804905F
:1034D8002183E6D000274FF0040A3E4682E721F018
:1034E8000701236941F0050189B2052DD3F8089039
:1034F8002183D6D000274FF0050A3E4672E7002701
:103508004FF0060A3E466DE72B4687E7B9F1000FF4
:10351800D1D1EFF31188202383F31288BFF36F8F83
:10352800238B23F008032383258BEA062ED525F069
:103538001003238305F007056669218B002EBFF66B
:1035480070AF00232768C4E9003321F0070141F078
:1035580001012183218B4FF0000901F0070AAA45D8
:103568007FF440AF002F9CD041F00801218388F3FD
:103578001188BFF36F8F002FC8D03D683946334696
:103588005246204616F03AFF2F46F4E7AB067FF581
:103598001BAF25F02003238305F0070500E700BFD4
:1035A80031A4010130B50C460E4985B00291D0F81E
:1035B800D4110546CDE9003100F1F0014FF0FF3399
:1035C800204614F009FD50B9012384F86C30D5F871
:1035D800D03123B1204605B0BDE83040184705B0CA
:1035E80030BD00BF5FA7010138B50C46114605463E
:1035F80017F0B3F8034638B92846044917F0ADF870
:1036080003460020236038BD0120FBE703E60101E3
:103618002DE9F04F012381460569466889B005F513
:103628005D77D7E8EF2F002A03D1C7E8E13F0029EB
:10363800F7D10CBF1A46002240F0B180B368B16AD6
:1036480005F5F8781C1F104617F00EF984426FD85C
:10365800013A00F09E80B2FA82F24FF00044D44062
:1036680072682046073222F00302C5F83C22B16A8C
:1036780017F0FAF8C5F84002B36A404663430333CB
:1036880023F0030302EB4302230103EB4403093352
:1036980023F0030303EBC403C5F834221A440832A9
:1036A800C5F830227368C5F83842C5F82C323D4B4E
:1036B800C5E9AD63316800F0E5F90446002835D165
:1036C800D9F810B0D9F804A0D9F800300BF534793E
:1036D800CDE9060005934846DAE90734012B08BF0F
:1036E800103C18F09BFDDAF824002F4905AB01EBDC
:1036F80080214FF4806248460093234615F01EFB54
:103708002A490BF5307018F042FDDAE905018368A3
:103718005C684CB15B46264AA047044630B9DAE9F2
:10372800050183681B692BB96FF05704002129E054
:10373800013288E70122984704460028F6D11D4B3C
:103748002846C5F8D0311C4BC5F8D4311B4B039320
:10375800D5F840320293D5F83C32CDE9008305F51F
:103768001173B26AD5F8701300F054F904460028B2
:10377800DCD105F1F00014F0D5FC0028C5F8780379
:103788000ADB0221384617F01CF8204609B0BDE8CC
:10379800F08F6FF00B04C9E76FF01504C6E76FF000
:1037A8007704F2E7B5A70101906400219BA7010106
:1037B8008FA70101C937000147A90101FBA7010132
:1037C80013B5044640B100230122CDE90032074B6E
:1037D800D0E9091214F0D4FB236F1B6823B1606F82
:1037E80002B0BDE81040184702B010BD03E6010161
:1037F80013B504460846216901F55D71D1E8AF1F8C
:10380800022910D193B1A0B10121CDE900311346AD
:10381800D0E9091214F0B4FB074B984208BF6FF0C7
:103828000B0002B010BD6FF00F00FAE76FF04C000C
:10383800F7E76FF00100F4E72EF8FFFF2DE9F347F3
:1038480089461546066906F55D73D3E8AF3F022B36
:1038580064D1136823B96FF0150002B0BDE8F08792
:103868001B78002BF7D0D6F870A3BAF1000F36D129
:1038780006F5EC774FF0FF324FF0FF33384614F07F
:1038880085FF30462A6801A9FFF7AEFE019C8046F5
:103898001CB9384616F093FFDDE705F108032367E6
:1038A800AB6984F86CA06367646460B1384616F04D
:1038B80086FF21463046A36E2A68FFF773FE002074
:1038C800C9F80040C9E71F22296804F1480018F028
:1038D800C1FF384684F8678016F071FFEFE730467D
:1038E800104916F03AFF04460028B4D0002705F125
:1038F80008030367AB6980F86C70436740641F2254
:103908002968483018F0A6FF22460121304684F87D
:10391800677000F061F80028D1D09CE76FF00F00C5
:103928009BE700BF03E6010110B50C46006900F5EE
:103938005D73D3E8AF3F022B0FD189B10A4900F577
:10394800307018F050FC204617F07BFF78220021D9
:10395800204618F055FF002010BD6FF00F00FBE760
:103968006FF00100F8E700BF882400212DE9F04F2F
:1039780005460E4690460027D0F8C4A085B0AAF5A3
:10398800BE7421463046FCF7ADFBE0B9114BA4F1FB
:10399800480B0293DAF810303246CDE90083294605
:1039A8004FF0FF335846AAF5E27914F015FB60B9D9
:1039B8007823012203FB079383F86C20DAF80C3094
:1039C8000BB158469847783417B105B0BDE8F08F69
:1039D8000127D6E775A901011FB5144690B18AB130
:1039E800012912D10A4B00F1F0010293D0F8D43129
:1039F800483201934FF0FF332046009314F0ECFA5D
:103A080004B010BD6FF01500FAE70020F8E700BF1A
:103A180075A901012DE9F04387B00E46DDE90E8155
:103A28001446DDE910251F4630B329B3DFF850C02E
:103A380000F1F009002D08BF65469EB9CDE90344A1
:103A480000F5E2742046059618F093F903ABCDE92A
:103A580000432A463B464146484614F0DDFB07B082
:103A6800BDE8F083002241460E9248462A4607B038
:103A7800BDE8F04314F026BD6FF01500EFE700BF76
:103A880075390001F0B504462B4A87B004AB0E46E1
:103A980092E8030083E80300002C49D0184614F08C
:103AA80075F90546B0B94FF0FF33E16C04F15407DE
:103AB800A163CDE9010000933846236D04F1380273
:103AC80017F071FBA06C16F080FFC4F8BC0020B999
:103AD8006FF00B05284607B0F0BDA06C16F075FF17
:103AE800C4F8C0000028F3D0236CD4F8BC10C4F884
:103AF80090300423C4F89430C4F8AC300223E36255
:103B08000E4BB4F84820C4F88C10616C236204F1A1
:103B18008C03C4F8A070A4F89820C4F8B870C4F84E
:103B2800A810A4F8B020C4F8A400A6612363D1E7C4
:103B38006FF01505CEE700BF20CC010184CC010150
:103B4800014B036000207047B0CC010130BFFFF784
:103B5800FDBF00BF2DE9F04105460B4EDFF82C8074
:103B6800324606EB0807CC1B2046094918F021FE0F
:103B7800A01942460021083C18F042FE6C6707F184
:103B88000800BDE8F08100BF00000000040000004C
:103B980020CC0101054B5A699B689A421FBF044A11
:103BA800536843F080535360704700BF3060002172
:103BB80000ED00E0154B9A6A12F0007F9A6A14BF74
:103BC8001E201D2012F0807F9A6A18BF1F2012F451
:103BD800801F9A6A18BF022012F4002F9A6A18BF31
:103BE800212012F4802F9A6A18BF222012F4003F75
:103BF8009A6A18BF232012F4803F9A6A18BF2420BB
:103C08006FEA02426FEA12429A62704700ED00E0E2
:103C180010B5164B9A6A9C6A12F4805F14BF17227B
:103C2800162214F4006F9C6A18BF1822A40509D53F
:103C38009A6B9A6A120404D518B19A6A22F400425F
:103C48009A621922094B986A10F4806F986A18BF13
:103C58001A2210F4807F986A40F47F4098624FF0EF
:103C680000030CBF10461B200B7010BD00ED00E0D8
:103C780010B5154B0246986A9C6A10F0100F14BFD5
:103C88001120102014F0080F9C6A18BF1220A407F6
:103C980009D5586B986A000604D51AB19A6A22F0B9
:103CA80080029A621320084B9A6A12F0010F9A6AEE
:103CB80018BF1420D20658BF9A6A9A6A42F0FF02C7
:103CC8009A6200230B7010BD00ED00E0F0B5474B81
:103CD80004465B6800258BB0C3F3080385F311889D
:103CE800BFF36F8F02F07F40B0F17F4F11D102F028
:103CF8000C0008280DD010074CBF0C4601250022E7
:103D0800033B8DF80720032B05D8DFE803F0246276
:103D1800665F2C46F3E700239DF80720CAB902AE78
:103D280004F12007324620686168083403C2BC42A7
:103D38001646F7D1099A002D53D0C2F3080121B9CC
:103D48006FEA52226FEA42220992184602A916F037
:103D580074FE0BB0F0BD254BDA6A9107DBD4DA6A42
:103D6800002AD8DBDA6A5200D5D55A69A16942F42B
:103D780080725A61BFF34F8FBFF36F8F5A6931F862
:103D8800021C22F480725A61BFF34F8FBFF36F8F0A
:103D98004DF60272914209D09A6AD2B242B101201C
:103DA8000DF10701FFF764FF0346B5E72368B3E7A2
:103DB8009A6A12F47F4F05D001200DF10701FFF731
:103DC80027FFF1E79B6AB3F5803FA4D3FFF7F2FE24
:103DD800EAE700200DF10701E4E700200DF10701F3
:103DE800EDE722F4FF7222F00102ADE700ED00E0FA
:103DF800064B5A6942F010025A615A6942F48062CD
:103E08005A615A6922F008025A61704700ED00E0D1
:103E1800EFF30880EFF3098101B57246FFF756FF0B
:103E280001BD00BF0B4880F3088813F0FDF820207F
:103E380080F3118808484FF40061401880F309881E
:103E4800EFF314800221084380F31488BFF36F8FC7
:103E580016F008FE10770021106C0021084B9B68B3
:103E680083420BD1EFF3058343B1064B5A6842F006
:103E780080525A605A6A22F400425A6215F012BB04
:103E88003060002100ED00E014498A684FF03000EE
:103E98001044EFF3098C80E8F01F202080F312888B
:103EA800BFF36F8F0E4F4FF000664A698A603E601D
:103EB800506F0C4C2060906F0023936780F311883B
:103EC80002F1300090E8F01F8CF3098802F100003D
:103ED80004B516F0D2FDBDE80440704730600021FB
:103EE80004ED00E0B02400211EF0040F0CBFEFF336
:103EF8000880EFF30980816911F8021C0229FFD0BC
:103F080001B5724616F09FFD01BD00BF40B2002802
:103F180007DB01234109034A00F01F00834042F8F0
:103F28002130704700E100E040B200280CDB01229C
:103F38000649430900F01F008240203341F823203E
:103F4800BFF34F8FBFF36F8F704700BF00E100E0F2
:103F5800054B420953F82220012300F01F0003FA01
:103F680000F01040704700BF00E100E040B20028B8
:103F780001F10101ACBF00F16040064B4FEA41116D
:103F8800C9B2ABBF00F5614000F00F0080F8001324
:103F98001954704714ED00E0044B054A23F07F03E1
:103FA8009360BFF34F8FBFF36F8F7047000000011E
:103FB80000ED00E042F8203C009B0B4942F81C3C15
:103FC800019B21F0010142F8183C029B42F8081CB1
:103FD80042F8143C4FF0807342F8043C0023203A26
:103FE80002658367704700BF5D33000100B50D4B64
:103FF80015469860426F0C4B0E461A60436E83F369
:104008000B882C4686F309880020044B98472046E5
:10401800002100220023024C204700008BAA010146
:104028005D33000130600021B02400211022014BD3
:104038001A61704700ED00E0002320210348C218F0
:1040480001331E2B82F80013F9D1704700E100E01C
:1040580008B5EFF30583064A103B02EBC30152F89B
:10406800330049688847BDE80840FFF793BD00BFA3
:10407800BCCA01011FB5094C094A23460121094858
:1040880000F0FAF800230393074B0121E41A01A872
:104098000193029400F0FAF804B010BD0000012169
:1040A80000000021B0CC01011804002110B50C7AE1
:1040B8000B6804F01F0223F01F031A43CB6864093E
:1040C80023F01F03054943EA440343F00103C1F801
:1040D8009800C1F89C20C1F8A03010BD00ED00E0A8
:1040E80010B5074BD3F89030C3F30723013B984230
:1040F80002D8FFF7DBFF10BD6FF01500FBE700BF2C
:1041080000ED00E02DE9F04F0F46144606464FF04B
:1041180000084D4D85B0B84580F29280D6F80490DD
:10412800B9F1000F36D0B9F11F0F40F2878019F0AE
:104138001F0F40F08380D6F800A01AF01F0F7DD122
:10414800504616F0DEFC834609EB0A00013816F0EB
:10415800D8FC834572D11BF1160F6FD05C456DDD1D
:10416800C5F898B0D5F89C10C5F898B0D5F8A03027
:1041780021F01F0143F01F0AD6E900321A44994280
:1041880002F1FF391ED1CA4508D131465FFA8BF0DA
:1041980016F0C0FC08F101080C36BCE73146C5F83A
:1041A80098B0D5F89C3022F01F0203F01F03134388
:1041B800C5F89C30E0B216F0ADFC10F1160F3DD0FA
:1041C800441CE7E7C5F898B0D5F8A020013B23F0D8
:1041D8001F0302F01F021343CA453146E0B2C5F877
:1041E800A030E8D016F096FC10F1160F26D0C5F8CE
:1041F80098B0D5F89C209DF808300AF1FF3A62F390
:1042080004038DF80830D5F8A0309DF808205B0825
:1042180063F347128DF80820D6E90032134400935F
:1042280023F01F035344A3EB0903013023F01F03BA
:104238006946C0B20393FFF753FFBEE76FF015045A
:10424800204605B0BDE8F08F00ED00E00522044BE4
:10425800C3F89420BFF34F8FBFF36F8F704700BF31
:1042680000ED00E0BFF35F8F0022024BC3F89420FB
:10427800704700BF00ED00E010B5034C2278FFF74F
:1042880041FF207010BD00BF6A6000212DE9F74F83
:10429800294D8A4606464FF00008AB46274FD045C1
:1042A8001BDAD6F80490B9F1000F3FD03168084600
:1042B800019116F026FC0199044609EB010001382A
:1042C80016F01FFC84424FF014021D4B08D002FB6D
:1042D80008F36FF015024BF8032003B0BDE8F08F28
:1042E80014F1160F2C60F8D01978A142F5DD02FB05
:1042F80008B0C7F89840C7F89840D7F89C4000F134
:104308000801007B64F304000871D7F8A0000C7959
:10431800400860F347140C71D7F89C1021F01F0176
:104328006960D7F8A01021F01F01296108F1010880
:1043380014350C36B3E700BFB424002100ED00E0CB
:104348006A600021F0B54149414CD1F890302568A8
:10435800C3F307239D4287B075D80020FFF782FF7B
:104368003C4BC1F8C030854216D13B4C01A82570A2
:10437800FFF7E6FB00250646384FAE4213D1002072
:1043880023783249D1F89020C2F30722934254DBB4
:10439800FFF75CFF00202FE0616801EB0011FFF7D9
:1043A80085FE0130DFE70199280101EB0513DA6882
:1043B8003A40B2F5001F21D0B2F5800F2BD0B2F5EC
:1043C800801F38D15A689B680958013B22F01F00AA
:1043D80003440120844623F01F0340EA4C10CDE932
:1043E80002218DF8100002A920780593FFF778FEC6
:1043F80000281DDA6FF0150007B0F0BD5A689B68F9
:104408000958013B22F01F0003444FF0020C012021
:1044180023F01F03E1E75A689B680958013B22F023
:104428001F0003444FF0000C062023F01F03D4E7BD
:1044380023780133237001359FE7C1F89830C1F81C
:10444800A00001339EE74FF0FF30D5E700ED00E014
:10445800BCCC0101AAFF44006A6000210000F0FF03
:1044680008B5024B1B689847002008BDC8240021E6
:10447800034B044A1860937843F002039370704723
:10448800C82400215C00002108B50649064821F02F
:104498000701C1F1045202F5803215F00FFF002028
:1044A80008BD00BF57920021CC24002170B5416996
:1044B8000446867A0A4D59B1437ADB0706D42C2381
:1044C80003FB06535B6A1B689B689847002363617C
:1044D8002C20214600FB0650BDE8704017F0CABDED
:1044E800940300212C22024B02FB0030704700BFCE
:1044F800940300212C21827A054B01FB02339A6A2E
:104508001B7F801A1B3323F00303B0FBF3F07047C3
:104518009403002138B52C24827A064B04FB02331D
:104528005B6AD3E901240C601568FFF7E3FF04FB1D
:10453800005038BD940300212DE9F04385B00546AD
:10454800684690461C46039117F0BAFFDDE90067FC
:10455800EFF31189202383F31288BFF36F8F6B8BDE
:10456800002B41D02A8B9A4225D9002200232846C5
:1045780014F0D4F90446F0B189F31188BFF36F8FB2
:10458800039B002B41D032463B46684617F0BDFFDF
:104598002C21A27A254B204601FB02335B6A03A932
:1045A8001B681D68DDE90023A847606170BB2046D1
:1045B800FFF77CFF24E0698B4B1E6B8389F311881E
:1045C800BFF36F8F2B7F2A8BAC6A1B3323F0030357
:1045D800521A02FB0344154B154AEB1A9B1053431E
:1045E800A3722B7FE372CBE789F31188BFF36F8F38
:1045F80023464246284614F091F904460028BFD1C4
:104608000024204605B0BDE8F0836361012300253E
:104618002381039B29466382E27A656004F11800CE
:1046280018F0EEF863692582E360EAE79403002155
:10463800A38B2EBA70B52C250B4C00B970BD037A2C
:104648004668013BDBB20372002BF7D1C3604360BD
:10465800837A05FB03431B6A13B198473046ECE79E
:10466800FFF724FFFAE700BF94030021064AD2F8B7
:10467800AC3123F00043C2F8AC310022034BC3F83D
:104688004C21D3F84C3170470020014100600141B2
:1046980073B5354BD3E84F3F00233449CDE9003398
:1046A800334BD3F80445BFF35F8FD1F80465BFF3EC
:1046B8005F8FD3F804259442F3D16B46224601213B
:1046C8002B4816F091FA324605460F21274801ABD0
:1046D80016F08AFAE0B1019B0DB9009302E0009A46
:1046E8009342FAD3009B22481C44013CD0F84C3535
:1046F80024F07F449C421F4932D0FFF7B7FFC0F82F
:104708004C451D4B009A9A4218D901230B7001E0C1
:10471800002DE7D1194AD2F8AC3143F00043C2F872
:10472800AC31134BD3F84C2132B90121144A5160F2
:10473800D3F84C3103B1116001230DE0BFF35F8F53
:10474800D0F80435E41A24F07F440E4B033C9C4215
:10475800DBD900230B7000230B4A137002B070BD25
:104768000B78002BF7D0D5E76F60002100100141CE
:10477800006001416D600021FEFF7F0000200141C3
:1047880000B00041FBFF7F006E600021F8B51E49B4
:104798000023C1E8423F52BB1C4B1D783DB30523A3
:1047A8001B4E1C4F34780134B4FBF3F303EB830343
:1047B800E41A16F05FFC184A137823B157F824302E
:1047C800C01A072813D9154BD3F8141141B1002189
:1047D800C3F81411D3F8143134700CB901231370D1
:1047E800347816F047FC47F824002846F8BD0C4AF0
:1047F8000025D2F8AC3123F00043C2F8AC310122D5
:10480800084B5A60F1E700BF6F6000216E6000211D
:104818006C600021D82400216B6000210050004109
:104828000020014100B000410122024BC3F840259D
:10483800704700BF000008415023142213B51E4CD6
:104848000DF10700C4F80C351C4BC3F820214FF4B8
:1048580000621B4BC3F8BC254FF48062C3F83825AF
:1048680012F08CFC174B984223D117499DF807008A
:1048780016F007FC15499DF8070016F007FC1449C7
:104888009DF8070016F0FDFB21469DF8070016F07D
:10489800FDFB01209DF80730984012F069FC4FF4A9
:1048A80000220C4BC3F844230022C3F84C21D3F850
:1048B8004C3102B010BD00BF00B0004100302041B3
:1048C800002001410000AD0B4C610141282001414D
:1048D8002C2101410060014120B1034B800143F0CC
:1048E80001031847704700BF50CC010170B504465A
:1048F800807AFFF7F7FD6169054649B1637ADB07FE
:1049080004D4436A20461B689B6898470023636168
:104918002146284617F0AEFB034B1B681BB1BDE8C8
:1049280070402A20184770BDEC24002108B5034BBD
:10493800186817F094FB002008BD00BFF024002180
:10494800811EC9B21E2938B5044609D80A4820FA7A
:1049580001F1C90704D5094816F0FBF8054610B956
:104968000025284638BD064B013CE4B2195D0C30E1
:1049780016F012F9F5E700BF41000040EC030021F2
:1049880039E40101F8B501280446DDE9067609D0C5
:10499800042804D1144816F0DCF8054620B900258F
:1049A8002846F8BD1148F6E7013CE4B21F2C96BF33
:1049B8000F4B0021195D00F10C04204616F0ECF8AD
:1049C800002FEDD0002EEBD0204616F005F98642D8
:1049D80003D92846FFF72EFEE1E73246394620463E
:1049E80016F0D1F8DCE700BF94030021C0030021D2
:1049F80039E40101038A014623B1034B186883682F
:104A08009B681847122070476C00002110B5084BAE
:104A1800084C1860206817F0EBF930B12068064997
:104A28008368BDE810401B6818476FF0120010BD7E
:104A3800F02400216C0000213549000170B54FF0C9
:104A4800FF320D464FF0FF330021064616F045F9B8
:104A5800044660B91A230A4A0A490B4815F07AFC39
:104A680084F31188BFF36F8F0323184602DF0221F6
:104A780004F10C0016F081F806704570204670BDF0
:104A880059E401018FE4010193E4010110B54FF0ED
:104A9800000E00F1070C541E2CF0030C1860A4B291
:104AA800ACF80020023A93B201FB04F240F802E0AD
:104AB80074B14FF6FF7C03FB011403FB01F22044A1
:104AC800121B013B9BB263458050A0EB0100F8D15B
:104AD80010BD00BF0346006810B102680AB91A6029
:104AE8007047C11D21F00301B1F800C0D11D21F0AC
:104AF80003010CF1FF3CA1F800C0F0E70B687BB1A3
:104B0800073323F003031A88013292B20346D1F81F
:104B180000C043F807CB23F003031A8008607047EE
:104B28000122F3E702FB0100704700BF401A90FB27
:104B3800F2F080B2704700BF531E11449BB242B1DD
:104B4800DB430138CA1811F8013D914200F8013FD2
:104B5800F9D17047014402E010F8013B1BB98842C3
:104B6800FAD1002070470120704700BF106008602C
:104B7800704700BF0A6803460068904209BF0022D8
:104B880000200A601A607047D2F800C0CCF8000014
:104B9800D2F800C0CCF8041010607047884203D0E7
:104BA8001AB1436813607047002070470B6883424E
:104BB80009D02AB1586810601A680A601846704708
:104BC800002BF9D1FAE70023F8E700BF2DE9F041FF
:104BD8004FF00C080C4F0D4E3D4606F130042146AF
:104BE8002846221D0C3CFFF7C1FFA642A5F1080587
:104BF800F5D1A8F1040818F1040FA7F12007A6F1D0
:104C08003006E9D1BDE8F08170250021FC2500219E
:104C180003468C4610B49AB101EB4101144803EBEA
:104C28004304090101EB84010144487A0C7AA0424B
:104C380004BF0130087210BC6146184610F0CABFA4
:104C480001EB41020A4C120100EB400302EB830323
:104C580023449C7ADA7AA24201D010BC7047013210
:104C68009A720122034B5A5410BC11F00BB800BFC2
:104C780078250021F4240021F8B506461C460D4687
:104C880002B322786378D21A12F003023BD1274F7D
:104C980071004FEA450C3144AC44890001EB0C111A
:104CA80001330431DBB27A18606821462370FFF7BC
:104CB8006BFF01221E4B294630465A5510F0E2FF81
:104CC8000020F8BD10F0C8FF0028DAD02946304689
:104CD80010F0A0FF0028D4D005EB450206EB4601F2
:104CE800124F120102EB81023A44907AD27A637829
:104CF80090424FEA46014FEA450C0CD02078C01A82
:104D080010F00302C7D0012A03D00133DBB22370AD
:104D1800CFE71046F8BD2278D21A920702D00233A4
:104D2800DBB22370D4E902039847C9E7782500214C
:104D3800F42400212DE9F04FDFF8689189B019F8C3
:104D48000030002B5BD04FF0000B0324CDE904BBEF
:104D580009F800B08346DFF850A1C0EB001300EB60
:104D680040079B000AEB071703930294B8460023F9
:104D780058F8240FB96A07AA0793FFF70FFF4446AC
:104D88000546CDB1079E96F800807278A8EB020818
:104D980008F00308B8F1010F34D031788A1A02F00C
:104DA8000302012ACBB23CD1D7E9090107AAFFF7D0
:104DB800F5FE0546002DE5D197F82E3097F82F20FF
:104DC8009A4203D087F82F300123049397F82C30A8
:104DD80097F82D209A4203D087F82D3001230593A8
:104DE800029B0C3F5D1EEBB2FF2B0293BED10499D0
:104DF800D846DDF814B011B1BBF1000F47D009B0A7
:104E0800BDE8F08F013A7270079AD2E90202904722
:104E1800079E32787178D3B2521A02F00302012A3F
:104E280023D000222146B86A0193FFF7BFFE7560C0
:104E3800019B717873703278521A02F00302012ACA
:104E48000AD0D7E9090107AAFFF7A8FEB8F1010FB0
:104E5800054696D104460EE0039B71701A1D314633
:104E680028465244FFF790FEEBE707AAD7E9090165
:104E7800FFF794FE0446029B8BB10123594658461E
:104E880009F80B3010F0FEFE09B0BDE8F08F5A4665
:104E98004146404609B0BDE8F04F10F09BBE002CDB
:104EA8008AD0EAE7F4240021782500214B1E8446A5
:104EB800DBB271B100200CF1FF319C4411F8013FC5
:104EC80023B15A1E01301340C0B2FAD16145F5D161
:104ED80070470846704700BF2DE9F04F03260125AB
:104EE800074683B0042138460DF038FD00201F2303
:104EF800D7F800C04FF00108834682462CFA03F425
:104F080008E01C2B40F27E8119294AD04FF0010895
:104F180008461446013BDBB2FF2B49D02CFA03F2BA
:104F280002F0010294420CD0411C0E2BC9B270D978
:104F3800002AE6D01C2B40F26281192931D0904614
:104F4800E6E708F1010E072B5FFA8EFE10D9BEF1D5
:104F5800060F00F24981002A40F03781BEF1060FA2
:104F680000F005811C2B40F2FA800146F046CFE79D
:104F7800002A40F00181BEF1060F40F2EB800122C9
:104F880090469A404CEA020CD14642460BF1010B7E
:104F980001305FFA8BFBC1B2CA4500F09180192934
:104FA800B6D1013305FA03F34AB35B420CEA030CAA
:104FB8000022A04B01A88CEA030302AC019310F86D
:104FC800013B23B1591E01320B40D2B2FAD1A042A3
:104FD800F5D1012A09D91FFA8CF3B3EB1C4F12D172
:104FE8005FFA8CF3B3EB1C6F0DD1013E16F0FF0690
:104FF8007FF478AF6FF00D0003B0BDE8F08F013B90
:105008004CEA030CD4E70020C7F800C003B0BDE8A1
:10501800F08F0AF10109072B5FFA89F900F29180F4
:10502800002A73D1052B5FD914464FF0010E0129D0
:1050380002D02246F0460DE0CCB105FA03F2072B68
:105048002CEA020C88BF002221D9A0421AD00146BE
:105058000E2BA1D91929A4D0B9F10C0FA1D0CA4699
:1050680056E7BEF1060F4ED009B101294BD105FA1A
:1050780003F2072B4CEA020C1AD90C46A0424FF057
:105088000102E4D1611C4FF00108C9B2E0E70BF15D
:10509800FF3BA0425FFA8BFB20D00022CA4517D005
:1050A800014635E74FF0010E01292CD14CF0200CB8
:1050B8000BF1010B88425FFA8BFB06D00122EDE76A
:1050C80009F101095FFA89F9C4E704460122D9E721
:1050D80009F1010901465FFA89F9BDE701300022AB
:1050E8004FF00108C1B257E7BBF1000F19D0052BEB
:1050F800D8D0BBF1010F1AD0042B4FF0010E0DD1FF
:10510800E1B101291AD0F0460022A3E70BF1010B07
:105118005FFA8BFB0124A64689E7D146BBF1020F53
:105128009FD101229A404CEA020CC1E7D1464FF0C8
:10513800010B0BFA03F24CEA020CB9E74CF0100C25
:10514800B6E7002AE6D14FF0010E1C2B3FF472AFF0
:1051580014466CE7052B1FD9BEF1060F07D0014690
:10516800D146002883D00022EFE78B4633D1014691
:1051780022464FF00608CBE60BF10101BEF1060FFF
:10518800C9B2F2D90130C1B2012098409046D14647
:1051980000222CEA000CFFE6BBF1000F08D1012227
:1051A80093469A404CEA020C0446D1465A4669E7AF
:1051B800052B31D0BBF1010F0146B7D0042BACD180
:1051C800BEF1060F0CD0D1469AE7BEF1060FCED03D
:1051D8001C2B3FF6CAAE30B30146D1460122B4E7D4
:1051E8002246F046D14635E74FF0010E0EFA03F19C
:1051F80062B904467246D1464CEA010C42E796462B
:10520800D146A2E7D1464FF0010E9EE70446D146AB
:1052180000222CEA010C35E7BEF1060FA7D028B111
:105228000146D14640E70446D14606E7D14600216B
:105238003CE700BFD6BE898E30B5037E0568FF2BDC
:1052480014D003EB43028B4205EB021225D04FF03A
:10525800000C01E099420BD09E4613789468FF2B0E
:1052680003EB4302A44405EB0212F3D1002030BD46
:10527800714515D013780EEB4E0E4FEA0E1EFF2B1C
:10528800906805F80E3006D003EB430305EB0313D3
:105298009A6802449A60604430BD9E464FF0000C04
:1052A80013780376E6E700BFA2EB010C1CF4000FAD
:1052B80010B4836844690AD12CF07F4C6344A3423C
:1052C8000DD8E21A002310BC836042617047891A26
:1052D80021F07F418B4208D95B1AA342F1D9002201
:1052E8001B1B836010BC426170470C44E21AE9E75B
:1052F8002DE9F8438E462C21244DBDF82C7001FB76
:105308000055696801EBCE00C47811F83E6004F1DD
:10531800010C5FFA8CFC664598BF4FF0000C417891
:1053280061452FD004264FF00208416804EB44047D
:1053380004FA06F901EB041401F809606360089B9C
:105348006270A360099BA782E3600A9B84F80280CD
:1053580023610C9BA361119B63620D9BE3610E9B10
:1053680023620F9BA362109BE36280F803C0D5E918
:105378000837704698472B4631460022B847A07830
:10538800BDE8F8830120BDE8F88300BF3826002176
:105398002DE9F04F427A87B0D0E90045002A00F0A5
:1053A800FB808B4682462746531EDBB205EBC303C0
:1053B80003930595039B5A685E783B460492BBF1BC
:1053C800FF0F64D000250BEB4B044FEA0418CDF80F
:1053D80004B013F808B003EB04144FF0FF0C84F882
:1053E80000C0DAF800709AF8182007EB080962453F
:1053F800D9F8081018BF02960ED1C7E0091A06D1CD
:10540800B9F81E80BEF81EE0F04500F2B380B85D22
:105418009446FF286AD0024602EB420607EB061EB6
:10542800DEF8080036018842E8D9029EBCF1FF0F79
:10543800C9F8081089F8002061D001980CEB4C0CD1
:105448004FEA0C1C07F80C00FF2A06D002EB4202B8
:1054580007EB0217BA68521ABA60A2780132627072
:10546800002DACD04FF00001AA6A2970A97022B1B2
:105478000020E96A01939047019B6268002A9ED147
:10548800AA6ABBF1FF0F2262EA6A62629AD1994660
:10549800039A049F927806EB4601701CB2424FEAC9
:1054A800011CC6B207EB011567D0039B17F80C1057
:1054B8001878B04208BF00260429ECD16A7802EBBC
:1054C800420809EB08146078A1784FEA0818884266
:1054D80019D04FF00003012007F80C30AA6AA87011
:1054E8000AB1E96A9047039B9A78D4E70246BCF16F
:1054F800FF0F029EC9F8081089F800209DD1019875
:105508008AF81800A0E74FF6FE700192AA8A4B4667
:105518008242DAF8141007D04FF6FF70121AB2FA66
:1055280082F2520984F82C20029300234FF6FD7072
:105538006A6AA262EA6862602A6963622262AA8A67
:10554800824288BF1A46A283AA692046A261EA69F4
:10555800E2602A6A2261AA686361A2606A68FFF74A
:10556800A3FE4FF00003E278E38342F00102029BBE
:10557800E27032E70146029E58E7039A05994F46C2
:105588008A42A2F1080307D0039313E707F808201B
:10559800019A8AF8182060E707B0BDE8F08F00BFCD
:1055A80001232DE9F04F447E8FB08376002C40F024
:1055B800B380037E8146FF2B00F0AD800FF0C4FB63
:1055C800D9F81420D9F81C30801A20F07F45AB4256
:1055D80094BF0023012399F81880A346B8F1FF0F60
:1055E800D9F800A0049375D0059408EB48080AEB95
:1055F8000814A3684FEA0818AB426AD8A078ED1AD5
:105608009B4463781AF808801B1ADBB2012B5DD122
:10561800A369A26A0393002A00F0EC801668002EA2
:105628007DD0002B40F08E80049B002B00F007817A
:1056380004230393137A590700F0F680137A6FF363
:1056480002031372E78B7B1C94F82C209BB2E38334
:10565800002A73D0A28B9A4270D2A26A002A00F064
:105668004781137A03F00703012B67D00126002036
:1056780051685060A36A1A7A60F302021A72A0781D
:10568800E7680138A0700FB36369D9F8142094F85B
:1056980003C0ABEB0303134423F07F40626A236922
:1056A8000CF0010C002E40F0B680B4F81EE0CDE9F5
:1056B80000C37346B847039BE683002B049B18BFBF
:1056C80001230493E37866F30003E370B8F1FF0F56
:1056D8008BD1059C99F80B3099F80A209A4208D189
:1056E8000132D2B2022A16BF14460023234689F893
:1056F8000B4009EB8303C3F80CB0D9F8244000250C
:105708004B46012204210320A44689F81A500FB001
:10571800BDE8F04F604784760FB0BDE8F08F039B7B
:10572800002B65D0049B002B88D1D9F81C305B4531
:1057380084D8B8F1FF0F11D1049E98E7A378013BF4
:10574800A370C3E7049B002B7FF474AFD9F81C3017
:105758009B45FFF46FAFB8F1FF0F46D0039BE78B73
:105768009C460793A38B6668BB428EBF3946FB1ADB
:1057780099B201FB066108EB48030AEB0313DDF855
:105788001CE0069199688E452DD3CDE9085BCDF8CC
:105798002880A3468E461446B046CDE90C70CDF855
:1057A8002CC0DDF81CC0CDF81C90DDF80C90986A70
:1057B8009A6910B1006800284FD1002A4DD11B7892
:1057C800FF2B07D003EB43030AEB031399688E44BE
:1057D800E645ECD90D98DDF81C902246DDE90A8CE7
:1057E8005C46DDE9085BCDF80CC0002A00F0978024
:1057F80000263CE7039BA3B1049B002B7FF422AF58
:10580800D9F81C309B45FFF41DAFB8F1FF0FA5D1A7
:1058180004990E4634E7CDE900C34FF6FF73B84745
:1058280054E7039E00212BE7A08BE18B88423FF6CB
:1058380005AF012161F302031372E78B03E7D9F87F
:105848001C305B453FF6F4AEB8F1FF0F53D04FF074
:10585800040CE78BCDF81CC084E7DD8B9F8B5E685A
:10586800BD422AD2002E41D1002CA8D0304626684D
:105878002EB1B9F1000F02D1724496423FD2BD4217
:105888009DD3DA789BF8031002F0010601F00105B8
:10589800AE4204D84A40D50791D400288FD022467A
:1058A800DDE90A8C5C46DDE9085B0C9FDDF81C909D
:1058B800002A32D1CDF80CC0C5E69EB1E81B80B2F3
:1058C800B8F1000F0AD000FB0660401A0699814221
:1058D8002CBF00200120002CC9D1D0E74046002C65
:1058E800C5D1CCE7002CC1D12046CAE72846E7E756
:1058F8000126A07896E70423049E0393B7E6DDF813
:105908001C902246DDE90A8C5C46DDE9085BCDF88F
:105918000CC0002E3FF492AE8CE61668F7E71646E8
:105928001146ADE62DE9F04F837E8FB00390002B32
:1059380040F0AE82437E0C93002B7AD1012103986C
:10594800837AC27A44699A420794417600F01684B1
:105958000B44DBB2022B0ABF0C9A1A4613460126E7
:1059680003998B7201EB8203DA68079B0692134452
:1059780023F07F434B61DDF80CB09BF81830089397
:105988000FF0E2F9DBF800309BF8097001937B1EF9
:10599800DBF80450DBB20590002F00F027850027C4
:1059A80005EBC30AFF230D9604930997A846DAF876
:1059B80004609AF803009AF8029009EB490409F187
:1059C800010348454FEA0417DBB206EB041400F064
:1059D800F9809AF800209A4208BF00238AF802301A
:1059E800F25D6178042A3BD9019801EB410300EB91
:1059F8000315082A4FEA03130293A8786B7822D874
:105A08001B1A13F0FF032DD1062A1CD19BF81B305B
:105A18008B4252D04FF00003F355A370A36A002BBA
:105A2800C7D00020E16A98479AF803009AF80290D4
:105A3800C3E70421446A034601220846A4460FB07E
:105A4800BDE8F04F60474FF00003F3554FF00103F6
:105A5800A370A36A002BACD00120E16A9847A8E79D
:105A68009946AAE7052A1FD162684AB9A2683AB9D5
:105A7800E2682AB922691AB9626932F07F42E2D033
:105A8800012B2AD00421012245465B460846DBF853
:105A980024400992A047AA458AF80290AAF108036F
:105AA80000F096809A4681E7012B00F08481062A4F
:105AB800E8D19BF81B308B42ACD16168DBF814202D
:105AC8008B1A1D0240F19B81069B521A22F07F42DD
