:10000000A02B0020AD130000F9840000991300001C
:100010009913000099130000991300009913000030
:10002000000000000000000000000000711400004B
:100030009913000000000000111400009913000043
:100040001116000011160000111600001116000014
:100050001116000011160000111600001116000004
:1000600011160000111600001116000011160000F4
:1000700011160000111600001116000011160000E4
:1000800011160000111600001116000011160000D4
:1000900011160000111600001116000011160000C4
:1000A00011160000111600001116000011160000B4
:1000B00011160000111600001116000011160000A4
:1000C0001116000011160000111600001116000094
:1000D0001116000011160000111600001116000084
:1000E0001116000011160000111600001116000074
:1000F0001116000011160000111600001116000064
:100100001116000011160000111600001116000053
:100110001116000011160000111600001116000043
:100120001116000011160000111600001116000033
:100130001116000011160000111600001116000023
:100140001116000011160000111600001116000013
:040150001116000084
:100154007BB972B90029BEBF00204FF0004106E010
:1001640008BF00281CBF6FF000414FF0FF3000F0C3
:100174003FB8ADF1080C6DE904CE002909DB002B72
:100184001ADB00F051F8DDF804E0DDE9022304B0E5
:100194007047404261EB4101002B1BDB00F044F847
:1001A400DDF804E0DDE9022304B0404261EB4101E3
:1001B400524263EB43037047524263EB430300F044
:1001C40033F8DDF804E0DDE9022304B0404261EBDA
:1001D40041017047524263EB430300F025F8DDF818
:1001E40004E0DDE9022304B0524263EB43037047A9
:1001F400704700BF10F8012B11F8013B012A28BFFA
:100204009A42F7D0D01A7047034611F8012B03F82D
:10021400012B002AF9D17047034613F8012B002A59
:10022400FBD1181A013870472DE9F04786468C46F1
:100234000846089E154674461946002B40F0C180B6
:100244008542B2FA82F245D94AB1C2F1200300FADA
:1002540002FC954094402EFA03F343EA0C0C4FEA57
:10026400154EA8B2230CBCFBFEF80EFB18CC08FB01
:1002740000F943EA0C43994528D9EB1808F1FF37F4
:1002840004D2994502D9A8F102072B44A3EB090330
:10029400A4B2B3FBFEFC0EFB1C330CFB00F044EADF
:1002A4000344A04214D92C190CF1FF3304D2A04208
:1002B40002D9ACF102032C44241A43EA07401EB1CC
:1002C400D440002334607360BDE8F0874746DDE71F
:1002D4006346F1E792BB431B01214FEA154EAFB2CF
:1002E400200CB3FBFEFC0EFB1C330CFB07F840EAAE
:1002F4000343984561D9EB180CF1FF3004D29845BB
:1003040002D9ACF102002B44A3EB0803A4B2B3FB63
:10031400FEFC0EFB1C330CFB07F744EA0344A74224
:100324004DD92C190CF1FF3304D2A74202D9ACF1F8
:1003340002032C44E41B43EA0040C0E7C2F120035B
:100344009540944020FA03F12EFA03F34FEA154E38
:100354009040AFB20343B1FBFEFC0EFB1C10190C22
:100364000CFB07F841EA0041884522D969180CF1D1
:10037400FF3004D2884502D9ACF102002944A1EB34
:1003840008019BB2B1FBFEFC0EFB1C110CFB07F732
:1003940043EA01439F420ED9EB180CF1FF3104D21A
:1003A4009F4202D9ACF102012B44DB1B41EA00411C
:1003B40093E76046E3E76146F7E76046A4E76346F0
:1003C400B8E7834206D916B9002108467CE7C6E996
:1003D40000E0F9E7B3FA83F78FB9834201D372459A
:1003E40008D8BEEB020460EB030301209C461EB94F
:1003F400002169E73846FAE7C6E9004CF8E7C7F197
:10040400200CBB400EFA07F522FA0CF42EFA0CF17C
:10041400BA401C4320FA0CF3B8404FEA1449014394
:100424001FFA84FEB3FBF9F809FB18300B0C08FB28
:100434000EFA43EA00439A4540D9E31808F1FF3025
:1004440004D29A4502D9A8F102002344A3EB0A037B
:1004540089B2B3FBF9F809FB183308FB0EFE41EA35
:1004640003418E452CD9611808F1FF3304D28E451F
:1004740002D9A8F10203214443EA0040A1EB0E0192
:10048400A0FB02984145CE46434602D306D14D45D2
:1004940004D20138B9EB020E68EB0403002EA7D096
:1004A400B5EB0E0261EB030101FA0CFC22FA07F32F
:1004B400F9404CEA0303C6E9003199E74046C5E731
:1004C4004346D9E7F8B5244B07461D68102D2E4640
:1004D40028BF1026F6B209F0A3FF034653201F4C91
:1004E4001F4AA0704820D2E900ECFF22E070280ADD
:1004F4002270627027716571A071E671CDB14FF4FD
:100504007A77A3FB073007FB0101DB0B43EA414386
:10051400B3EB0E0046F239334FEAD13161EB0C01F3
:10052400984271F1000304DA64220023FFF710FEFD
:10053400C2B200230B490C482272013DDAB2964242
:1005440091BF8022EA1A02F00F02825C0133102B61
:1005540001F8012FF2D1F8BD480A002078110020DB
:10056400B8030020801100209111002070B5037899
:100574008AB004460E4607AD032B20D8DFE803F00B
:1005840002191B1D11492846FFF73EFE05956378A5
:100594001E210493A37830460393E3780C4A029314
:1005A4002379019363790093A37906F04BFF0AB092
:1005B40070BD0849E7E70849E5E70849E3E70A2188
:1005C4002846074A06F03EFFE0E700BFBCAD000046
:1005D400E5AD0000C3AD0000CAAD0000D4AD00001D
:1005E400DEAD000070B51E4692B0212205460C46D1
:1005F40009A8002109F0EAFF384A3046136838494F
:100604000133136009AA08F0B6F89DF84430002BB2
:1006140035D0344909A8FFF7EDFD002831D1324A1D
:100624003248136803F00F0101334454136009F096
:10063400F7FE4FF47A72A0FB020302FB01312C4E49
:10064400C00B40EA4140C90BC6E90001284601A994
:10065400FFF78CFF4FF0FF324FF0FF33254805F0D2
:100664009FFD2246244801AB09A907F0CAFB214893
:1006740005F00EFE2148402183685B69984712B05B
:1006840070BD09F0CDFE4FF47A76A0FB063206FB6E
:100694000121DB0B1A4A43EA4143D2E90060C90B4A
:1006A4009E1B61EB0000142E70F10000E7DBC2E931
:1006B4000031284601A9FFF759FF4FF0FF324FF0F0
:1006C400FF330C4805F06CFD22460E4801AB09A926
:1006D40007F097FB074805F0DBFDD0E74C0A002044
:1006E4005379000008AE0000480A00209111002050
:1006F400B8030020F002002013AE0000CCA70000D5
:10070400C003002024AE00002DE9F0418AB03E4C25
:10071400204609F04DFB58B12269A16813682046B0
:1007240023F0400313600B684FF4C022062198475E
:1007340001273649364A3748374C07F062FB002018
:100744004FF00208276002F0B1F8344B01461860FC
:10075400C4F8008030B1324807F053FB00200AB0DF
:10076400BDE8F08160232F4A04902F4902A8CDE907
:10077400022302F09FFF2D4B0646186003232360DB
:1007840010B101462A48E7E72A4D05AC0FCD0FC446
:100794002B6830462360FFF795FE4246264B2749D7
:1007A400009705A802F0FCFC0146254807F029FB48
:1007B4003C46214E214F234D002140F6CD4009F007
:1007C400A3FDE0B2FFF77EFE012332460221384644
:1007D40002F0B8FB0A22B4FBF2F302FB134383B921
:1007E4004FF0FF324FF0FF33284605F0D9FC164B8B
:1007F40016481A68164B196807F003FB284605F0DB
:1008040047FD0134D8E700BFCCA7000032AE00009A
:1008140008AE000036AE0000500A00203C01002063
:1008240049AE000001006000E90500003801002025
:100834005DAE000050AB000098AB0000A0AB000020
:1008440072AE0000F0020020480A00207FAE0000D3
:100854004C0A0020014B1B68184700BF40010020D0
:10086400014B1860704700BF4001002030B585B0CF
:1008740004460D4610220021684609F0A7FE022313
:100884008DF80230044B2A4621466846019306F04F
:1008940003FE05B030BD00BF5908000080B5054611
:1008A4000E461746984606F0E1FA034609F032FF71
:1008B4000446DFF81890424649F80030394630467D
:1008C400A84754F8090000F08BFD00BF08000000A1
:1008D4002DE9F047058B04462807904611D40229D8
:1008E40005F0070540F0CC80204607F0A4FA78B163
:1008F4000138218B042811D8DFE800F0C2106D857F
:10090400950001290CBF45F0100545F0200525830D
:1009140088F31188BFF36F8FBDE8F08701F0070AF1
:10092400AA4500F0A5800027B9463E46A368002BDF
:1009340000F0BC8041F00801218388F31188BFF3E3
:100944006F8FA168002900F0BA800D68002900F0BB
:10095400B680334652462046D1F80480C047002D65
:1009640076D02B6829461D46F0E701F007035A1F8D
:10097400012A1BD8002221F00701062B276889B21F
:10098400C4E9002209D13B4603E0628B0132628351
:100994001B68002BF9D141F002012046218307F0A6
:1009A4004AFA00287AD041F0200176E0042B0AD1DB
:1009B40021F0070189B22046218307F03CFA10B1E7
:1009C40041F020012183218B01F0070AAA454FD071
:1009D4000027B946AAE7236921F0070141F006017F
:1009E400062DD3F8009021832DD1B9F1000F3FD00B
:1009F40041F00801218388F31188BFF36F8F2046EB
:100A04003949C84729E021F00701236941F004016D
:100A140089B2042DD3F804902183E6D000274FF047
:100A2400040A3E4682E721F00701236941F00501EB
:100A340089B2052DD3F808902183D6D000274FF032
:100A4400050A3E4672E700274FF0060A3E466DE768
:100A54002B4687E7B9F1000FD1D1EFF3118820239A
:100A640083F31288BFF36F8F238B23F00803238350
:100A7400258BEA062ED525F01003238305F0070500
:100A84006669218B002EBFF670AF00232768C4E986
:100A9400003321F0070141F001012183218B4FF044
:100AA400000901F0070AAA457FF440AF002F9CD04B
:100AB40041F00801218388F31188BFF36F8F002F61
:100AC400C8D03D68394633465246204607F0DFF920
:100AD4002F46F4E7AB067FF51BAF25F020032383F5
:100AE40005F0070500E700BFBF7E0000034A136856
:100AF4000BB9526813600020704700BF4401002006
:100B040030B50C460E4985B00291D0F8D411054693
:100B1400CDE9003100F1F0014FF0FF33204604F03D
:100B240065FF50B9012384F86C30D5F8D03123B176
:100B3400204605B0BDE83040184705B030BD00BFC1
:100B44000182000038B50C461146054607F058FBF3
:100B5400034638B92846044907F052FB03460020EF
:100B6400236038BD0120FBE763B100002DE9F04F9D
:100B7400012381460569466889B005F55D77D7E8A4
:100B8400EF2F002A03D1C7E8E13F0029F7D10CBFBA
:100B94001A46002240F0B180B368B16A05F5F878CE
:100BA4001C1F104607F0B3FB84426FD8013A00F0D3
:100BB4009E80B2FA82F24FF00044D440726820461C
:100BC400073222F00302C5F83C22B16A07F09FFB0A
:100BD400C5F84002B36A40466343033323F003037A
:100BE40002EB4302230103EB4403093323F0030321
:100BF40003EBC403C5F834221A440832C5F8302282
:100C04007368C5F83842C5F82C323D4BC5E9AD636D
:100C1400316800F0E5F90446002835D1D9F810B060
:100C2400D9F804A0D9F800300BF53479CDE90600E1
:100C340005934846DAE90734012B08BF103C09F054
:100C44009FFADAF824002F4905AB01EB80214FF419
:100C5400806248460093234605F056FD2A490BF569
:100C6400307009F046FADAE9050183685C684CB132
:100C74005B46264AA047044630B9DAE90501836891
:100C84001B692BB96FF05704002129E0013288E772
:100C94000122984704460028F6D11D4B2846C5F882
:100CA400D0311C4BC5F8D4311B4B0393D5F84032DB
:100CB4000293D5F83C32CDE9008305F51173B26A8D
:100CC400D5F8701300F054F904460028DCD105F17E
:100CD400F00004F031FF0028C5F878030ADB022194
:100CE400384607F0C1FA204609B0BDE8F08F6FF02E
:100CF4000B04C9E76FF01504C6E76FF07704F2E759
:100D040057820000B01100203D82000031820000B3
:100D1400210D0000E98300009D82000013B5044604
:100D240040B100230122CDE90032074BD0E909127A
:100D340004F030FE236F1B6823B1606F02B0BDE87E
:100D44001040184702B010BD63B1000013B504464B
:100D54000846216901F55D71D1E8AF1F022910D160
:100D640093B1A0B10121CDE900311346D0E90912B4
:100D740004F010FE074B984208BF6FF00B0002B05E
:100D840010BD6FF00F00FAE76FF04C00F7E76FF05B
:100D94000100F4E72EF8FFFF2DE9F34789461546D5
:100DA400066906F55D73D3E8AF3F022B64D113687F
:100DB40023B96FF0150002B0BDE8F0871B78002B53
:100DC400F7D0D6F870A3BAF1000F36D106F5EC7758
:100DD4004FF0FF324FF0FF33384605F0E1F930466B
:100DE4002A6801A9FFF7AEFE019C80461CB938466B
:100DF40007F038FADDE705F108032367AB6984F8E7
:100E04006CA06367646460B1384607F02BFA21462E
:100E14003046A36E2A68FFF773FE0020C9F800402D
:100E2400C9E71F22296804F1480009F0F9FB384694
:100E340084F8678007F016FAEFE73046104907F0A8
:100E4400DFF904460028B4D0002705F1080303673E
:100E5400AB6980F86C70436740641F22296848308E
:100E640009F0DEFB22460121304684F8677000F069
:100E740061F80028D1D09CE76FF00F009BE700BF1A
:100E840063B1000010B50C46006900F55D73D3E84A
:100E9400AF3F022B0FD189B10A4900F5307009F038
:100EA40054F9204608F0ADFC78220021204609F0D0
:100EB4008DFB002010BD6FF00F00FBE76FF0010009
:100EC400F8E700BF540A00202DE9F04F05460E460E
:100ED40090460027D0F8C4A085B0AAF5BE74214678
:100EE4003046FFF787F9E0B9114BA4F1480B0293A0
:100EF400DAF810303246CDE9008329464FF0FF334B
:100F04005846AAF5E27904F071FD60B9782301220C
:100F140003FB079383F86C20DAF80C300BB15846C6
:100F24009847783417B105B0BDE8F08F0127D6E7AC
:100F3400178400001FB5144690B18AB1012912D15B
:100F44000A4B00F1F0010293D0F8D43148320193F6
:100F54004FF0FF332046009304F048FD04B010BD69
:100F64006FF01500FAE70020F8E700BF17840000CF
:100F74002DE9F04387B00E46DDE90E811446DDE924
:100F840010251F4630B329B3DFF850C000F1F00933
:100F9400002D08BF65469EB9CDE9034400F5E2740F
:100FA4002046059608F0C5FE03ABCDE900432A466A
:100FB4003B464146484604F039FE07B0BDE8F0839D
:100FC400002241460E9248462A4607B0BDE8F04347
:100FD40004F082BF6FF01500EFE700BFCD0E0000F4
:100FE400F0B504462B4A87B004AB0E4692E80300E2
:100FF40083E80300002C49D0184604F027FB05467B
:10100400B0B94FF0FF33E16C04F15407A163CDE9AB
:10101400010000933846236D04F1380208F061F8AA
:10102400A06C07F025FAC4F8BC0020B96FF00B05DA
:10103400284607B0F0BDA06C07F01AFAC4F8C00047
:101044000028F3D0236CD4F8BC10C4F890300423E7
:10105400C4F89430C4F8AC300223E3620E4BB4F805
:101064004820C4F88C10616C236204F18C03C4F82A
:10107400A070A4F89820C4F8B870C4F8A810A4F814
:10108400B020C4F8A400A6612363D1E76FF015056E
:10109400CEE700BF64AB0000DCAB0000014B036093
:1010A4000020704708AC000030BFFFF7FDBF00BF51
:1010B4002DE9F04105460B4EDFF82C80324606EB55
:1010C4000807CC1B2046094909F073FAA0194246C7
:1010D4000021083C09F07AFA6C6707F10800BDE8C2
:1010E400F08100BF000000000400000048AB0000D5
:1010F400054B5A699B689A421FBF044A536843F0E0
:1011040080535360704700BF4411002000ED00E09D
:10111400154B9A6A12F0007F9A6A14BF1E201D2094
:1011240012F0807F9A6A18BF1F2012F4801F9A6AF7
:1011340018BF022012F4002F9A6A18BF212012F45B
:10114400802F9A6A18BF222012F4003F9A6A18BFAF
:10115400232012F4803F9A6A18BF24206FEA0242C7
:101164006FEA12429A62704700ED00E010B5194B25
:101174000246986A9C6A10F4805F14BF17201620F8
:1011840014F4006F9C6A18BF1820A40509D5986B45
:10119400986A000404D51AB19A6A22F400429A6249
:1011A40019200C4B9A6A12F4806F9A6A18BF1A209D
:1011B400D2050CD49B6A13F4005F18BF1C20054AA7
:1011C400936A43F47F43936200230B7010BD1B208A
:1011D400F5E700BF00ED00E010B51C4B0246986A2D
:1011E4009C6A10F0100F14BF1120102014F0080F87
:1011F4009C6A18BF1220A40709D5586B986A000688
:1012040004D51AB19A6A22F080029A6213200F4B15
:101214009A6A12F0010F9A6A18BF142012F0200F74
:101224009A6A18BF1520D40658BF9B6A074B9A6A5E
:10123400920642BF5A6A22F400525A629A6A42F0F3
:10124400FF029A6200230B7010BD00BF00ED00E0A6
:10125400F0B5474B04465B6800258BB0C3F3080325
:1012640085F31188BFF36F8F02F07F40B0F17F4F99
:1012740011D102F00C0008280DD010074CBF0C4609
:1012840001250022033B8DF80720032B05D8DFE856
:1012940003F02462665F2C46F3E700239DF80720E1
:1012A400CAB902AE04F120073246206861680834E6
:1012B40003C2BC421646F7D1099A002D53D0C2F39B
:1012C400080121B96FEA52226FEA422209921846B4
:1012D40002A907F005F90BB0F0BD254BDA6A9107B6
:1012E400DBD4DA6A002AD8DBDA6A5200D5D55A6927
:1012F400A16942F480725A61BFF34F8FBFF36F8FBD
:101304005A6931F8021C22F480725A61BFF34F8F7C
:10131400BFF36F8F4DF60272914209D09A6AD2B22E
:1013240042B101200DF10701FFF756FF0346B5E76F
:101334002368B3E79A6A12F47F4F05D001200DF1B8
:101344000701FFF713FFF1E79B6AB3F5803FA4D3CE
:10135400FFF7DEFEEAE700200DF10701E4E70020D5
:101364000DF10701EDE722F4FF7222F00102ADE76F
:1013740000ED00E0064B5A6942F010025A615A69C6
:1013840042F480625A615A6922F008025A61704735
:1013940000ED00E0EFF30880EFF3098101B5724638
:1013A400FFF756FF01BD00BF0B4880F3088803F028
:1013B400F7F9202080F3118808484FF400614018A1
:1013C40080F30988EFF314800221084380F3148822
:1013D400BFF36F8F00F0B0F8A02B0020601A00203C
:1013E400084B9B6883420BD1EFF3058343B1064B53
:1013F4005A6842F080525A605A6A22F400425A6291
:1014040005F03ABD4411002000ED00E014498A685B
:101414004FF030001044EFF3098C80E8F01F2020D7
:1014240080F31288BFF36F8F0E4F4FF000664A6946
:101434008A603E60506F0C4C2060906F002393676D
:1014440080F3118802F1300090E8F01F8CF30988D2
:1014540002F1000004B507F058F8BDE804407047F5
:101464004411002004ED00E07C0A00201EF0040F6B
:101474000CBFEFF30880EFF30980816911F8021CB7
:101484000229FFD001B5724607F030F801BD00BF54
:1014940040B2002807DB01234109034A00F01F0082
:1014A400834042F82130704700E100E040B2002858
:1014B4000CDB01220649430900F01F00824020335F
:1014C40041F82320BFF34F8FBFF36F8F704700BFE6
:1014D40000E100E0054B420953F82220012300F00B
:1014E4001F0003FA00F01040704700BF00E100E065
:1014F40040B2002801F10101ACBF00F16040064B8D
:101504004FEA4111C9B2ABBF00F5614000F00F00D2
:1015140080F800131954704714ED00E0044B054A99
:1015240023F07F039360BFF34F8FBFF36F8F704738
:101534000000000000ED00E008B5FFF7EFFF0B4AE4
:10154400D2F8883023F47003C2F88830EFF31483A0
:1015540023F0040383F31488BFF36F8F04F064FD56
:1015640005F0BEFD00F046F804F09EFD00ED00E03D
:1015740042F8203C009B0B4942F81C3C019B21F0A3
:10158400010142F8183C029B42F8081C42F8143C42
:101594004FF0807342F8043C0023203A02658367CD
:1015A400704700BFA108000000B50D4B15469860B8
:1015B400426F0C4B0E461A60436E83F30B882C4625
:1015C40086F309880020044B984720460021002216
:1015D4000023024C2047000017850000A1080000EA
:1015E400441100207C0A00201022014B1A6170472C
:1015F40000ED00E0002320210348C2180133452BED
:1016040082F80013F9D1704700E100E008B5EFF368
:101614000583064A103B02EBC30152F833004968C4
:101624008847BDE80840FFF763BD00BFACA80000D1
:101634001FB5094C094A23460121094800F0FAF86C
:1016440000230393074B0121E41A01A80193029498
:1016540000F0FAF804B010BD0000072000000020DC
:1016640008AC0000B803002010B50C7A0B6804F035
:101674001F0223F01F031A43CB68640923F01F03DE
:10168400054943EA440343F00103C1F89800C1F853
:101694009C20C1F8A03010BD00ED00E010B5074B50
:1016A400D3F89030C3F30723013B984202D8FFF7E5
:1016B400DBFF10BD6FF01500FBE700BF00ED00E09D
:1016C4002DE9F04F0F46144606464FF000084D4DE5
:1016D40085B0B84580F29280D6F80490B9F1000F35
:1016E40036D0B9F11F0F40F2878019F01F0F40F078
:1016F4008380D6F800A01AF01F0F7DD1504606F063
:1017040044FF834609EB0A00013806F03EFF834597
:1017140072D11BF1160F6FD05C456DDDC5F898B022
:10172400D5F89C10C5F898B0D5F8A03021F01F0169
:1017340043F01F0AD6E900321A44994202F1FF39F4
:101744001ED1CA4508D131465FFA8BF006F026FF58
:1017540008F101080C36BCE73146C5F898B0D5F855
:101764009C3022F01F0203F01F031343C5F89C3082
:10177400E0B206F013FF10F1160F3DD0441CE7E76A
:10178400C5F898B0D5F8A020013B23F01F0302F060
:101794001F021343CA453146E0B2C5F8A030E8D071
:1017A40006F0FCFE10F1160F26D0C5F898B0D5F857
:1017B4009C209DF808300AF1FF3A62F304038DF887
:1017C4000830D5F8A0309DF808205B0863F3471271
:1017D4008DF80820D6E900321344009323F01F0348
:1017E4005344A3EB0903013023F01F036946C0B23D
:1017F4000393FFF753FFBEE76FF01504204605B0CF
:10180400BDE8F08F00ED00E00522044BC3F89420FE
:10181400BFF34F8FBFF36F8F704700BF00ED00E041
:10182400BFF35F8F0022024BC3F89420704700BFC0
:1018340000ED00E010B5034C2278FFF741FF207063
:1018440010BD00BFA11100202DE9F74F294D8A4694
:1018540006464FF00008AB46274FD0451BDAD6F8B2
:101864000490B9F1000F3FD031680846019106F0A9
:101874008CFE0199044609EB0100013806F085FE4F
:1018840084424FF014021D4B08D002FB08F36FF0A2
:1018940015024BF8032003B0BDE8F08F14F1160FC6
:1018A4002C60F8D01978A142F5DD02FB08B0C7F826
:1018B4009840C7F89840D7F89C4000F10801007B95
:1018C40064F304000871D7F8A0000C79400860F3B1
:1018D40047140C71D7F89C1021F01F016960D7F8E8
:1018E400A01021F01F01296108F1010814350C36FC
:1018F400B3E700BF800A002000ED00E0A111002042
:10190400F0B54149414CD1F890302568C3F3072321
:101914009D4287B075D80020FFF782FF3C4BC1F889
:10192400C030854216D13B4C01A82570FFF7B6FBA9
:1019340000250646384FAE4213D1002023783249A1
:10194400D1F89020C2F30722934254DBFFF75CFFE7
:1019540000202FE0616801EB0011FFF785FE0130E4
:10196400DFE70199280101EB0513DA683A40B2F583
:10197400001F21D0B2F5800F2BD0B2F5801F38D1D3
:101984005A689B680958013B22F01F000344012058
:10199400844623F01F0340EA4C10CDE902218DF860
:1019A400100002A920780593FFF778FE00281DDABD
:1019B4006FF0150007B0F0BD5A689B680958013BE9
:1019C40022F01F0003444FF0020C012023F01F03F8
:1019D400E1E75A689B680958013B22F01F00034461
:1019E4004FF0000C062023F01F03D4E723780133C3
:1019F400237001359FE7C1F89830C1F8A000013386
:101A04009EE74FF0FF30D5E700ED00E014AC000096
:101A1400AAFF4400A11100200000F0FF08B5024B0A
:101A24001B689847002008BD940A0020034B044A11
:101A34001860937843F0020393707047940A00206F
:101A44007001002008B50649064821F00701C1F1DC
:101A5400005202F5E02206F07AF9002008BD00BF2A
:101A6400D7490020980A002070B541690446867A57
:101A74000A4D59B1437ADB0706D42C2303FB0653E2
:101A84005B6A1B689B689847002363612C2021468E
:101A940006FB0050BDE8704008F09ABA0403002029
:101AA4002C22024B02FB0030704700BF04030020CD
:101AB4002C21827A054B01FB02339A6A1B7F801A20
:101AC4001B3323F00303B0FBF3F07047040300203F
:101AD40038B52C24827A064B04FB02335B6AD3E9C3
:101AE40001240C601568FFF7E3FF04FB005038BDC8
:101AF400040300202DE9F04385B00546684690466E
:101B04001C46039108F08EFCDDE90067EFF31189B0
:101B1400202383F31288BFF36F8F6B8B002B41D08C
:101B24002A8B9A4225D900220023284604F000FC7F
:101B34000446F0B189F31188BFF36F8F039B002B28
:101B440041D032463B46684608F091FC2C21A27AEB
:101B5400254B204601FB02335B6A03A91B681D6801
:101B6400DDE90023A847606170BB2046FFF77CFFD6
:101B740024E0698B4B1E6B8389F31188BFF36F8F4D
:101B84002B7F2A8BAC6A1B3323F00303521A02FB0C
:101B94000344154B154AEB1A9B105343A3722B7F36
:101BA400E372CBE789F31188BFF36F8F2346424674
:101BB400284604F0BDFB04460028BFD1002420467B
:101BC40005B0BDE8F0836361012300252381039BF5
:101BD40029466382E27A656004F1180008F0F6FC95
:101BE40063692582E360EAE704030020A38B2EBA2D
:101BF40070B52C250B4C00B970BD037A4668013BC7
:101C0400DBB20372002BF7D1C3604360837A05FB18
:101C140003431B6A13B198473046ECE7FFF724FFF0
:101C2400FAE700BF04030020054B03EB8000D0F863
:101C3400003223F0E04343F04053C0F800327047D1
:101C440000258450052370B5144D154E2C780134AD
:101C5400B4FBF3F303EB8303E41A07F0A8F9114A86
:101C6400137823B156F82430C01A072814D94FF03A
:101C74005023D3F8141141B10021C3F81411D3F83F
:101C840014312C700CB9012313702C7807F08FF9E0
:101C940046F82400012070BD0020FCE7A3110020B9
:101CA400A40A0020A2110020012208B50B4B0C4904
:101CB400C3F8002502230020C1F8D036FFF7B4FF93
:101CC4001046FFF7B1FFC1F80427C1F80429C1F891
:101CD400002BBDE8084000F0BBB800BF0010005066
:101CE4000040005007B50DF1070002F07DFE104BD7
:101CF400984218D14FF480620E4B0F49C3F8B825AF
:101D04004FF40062C3F83C259DF8070007F05BF927
:101D14009DF80700094907F051F901209DF80730A3
:101D2400984002F05BFE03B05DF804EB00F0A0B84D
:101D34000000AD0B00A002502CA0025028A10250BC
:101D440048B1054B054A1B68B3FBF2F35843044BF7
:101D540043F0010318477047EC01002040420F0094
:101D640090AB0000002170B5104C114D114E0007CE
:101D740014F8013B03F01F025B090FD0012B0FD1B4
:101D8400334603EB8203D3F80022013122F0E04210
:101D940002430429C3F80022EAD170BD2B46F0E7C0
:101DA4000023803253F82230FFDE00BFAAAE0000C9
:101DB40000258450002884502DE9F0410646012076
:101DC4000D46FFF7CFFF4FF47F03D3F83021D3F84C
:101DD4003431072A20D1023B032B02D8114AD35CA9
:101DE400D3B14FF050244FF0010800270520C4F868
:101DF4001886C4F8147607F0DFF84046C4F8148651
:101E040007F0DAF8C4F81476C4F8187630462B468E
:101E1400BDE8F041002118474FF050230022C3F8D9
:101E24001426F3E7A6AE00001FB500230193039325
:101E3400012369460548029306F05FF8029B9B075D
:101E440008BF039B05B05DF804FB00BFB80A00207F
:101E54000149024806F03EB848AC0000B80A002028
:101E640008B1FFF7E1BF014806F09EB8B80A0020A8
:101E74001022024BC3F84024FFF7D6BF00300050B5
:101E840070B50C4B1968D868D3E901524A4080EA0E
:101E9400050485EA02065E6082EA452281EA0406B8
:101EA4004FEA745408441E609A60DC6001EB706071
:101EB40070BD00BFD40A002008B5044807F078FFBD
:101EC40000280CBF6FF01200002008BD0CA8000011
:101ED4002DE9F341DFF87480044698F800308F0848
:101EE40001F0030553B91A481A4E8368102231468B
:101EF4001B68984790B9012388F8003004EB8707E2
:101F0400A7421ED13DB1FFF7BBFF2A46019001A9AC
:101F1400384608F04EFB02B0BDE8F08107F047F800
:101F2400306007F044F80C4B4340736007F03FF80F
:101F34000A4B4340B36007F03AF8094B4340F3605F
:101F4400DCE7FFF79DFF44F8040BD9E7A411002058
:101F54000CA80000D40A0020B0C2649BD4D2D3865B
:101F640078E20AA010B503460548826814688AB26C
:101F74001946A0470028B4BF6FF00400002010BD2C
:101F84000CA8000008B506F0DEFB04F07BFE044B51
:101F94001B680BB10A209847BDE8084004F086BED0
:101FA400E40A002038B50446084806F01BFB054641
:101FB40048B1631EDBB21F2B96BF054A0021D15CDA
:101FC4000C3006F055FB284638BD00BF5C030020EA
:101FD400C1AE00000E38012810B50AD8094806F031
:101FE40001FB044618B104210C3006F041FB2046E5
:101FF40010BD09B10448F2E70220BDE81040FFF724
:10200400D1BF00BF880300200403002010B50121C4
:1020140004460C3006F04DFB2146BDE81040002379
:10202400014A007806F0DCBBB4AC000010B5012115
:1020340004460C3006F03DFB2146BDE81040012368
:10204400014A007806F0CCBBACAC000038B51E48A1
:1020540006F0E1FA0446002835D000F10C052846C4
:1020640006F02FFB042802D1238A012B0CD820462A
:10207400FFF7BEFD154BD3F8143123B3BDE8384048
:102084001349144808F051B82846022106F011FB00
:10209400037805460E3B012B0ED840F60C430E4A3E
:1020A4000E490F4805F0BAFE002383F31188BFF3ED
:1020B4006F8F0323184602DF03232146094A287839
:1020C40006F08EFBD3E738BD140100200000002089
:1020D4009001002048070020E1AE000015AF000089
:1020E40043AF000094AC00002DE9F0478846164643
:1020F400824600286AD00023DFF8D490D9E8EF4F55
:10210400C9E8E23F002AF9D1002C5FD02046FFF74E
:10211400CFFC0C232F4D274603FB00504388534527
:102124000DD0D9E8EF3FC9E8E27F002AF9D1002BAE
:102134004CD01F463846BDE8F047FFF759BDA642CC
:1021440008D0204606F049FA328AF16804F10C00FE
:1021540006F085FA2046FFF7ABFC0C2606FB005080
:102164004368ABB1B8F1000F12D12046FFF7A0FCD1
:10217400012106FB00504268D2E90003127A03F001
:102184001F06B1405B09DAB100EB830006F019FBCE
:102194002046FFF78DFC0C2606FB00508368002BBD
:1021A400C8D02046FFF784FC704305F80080204621
:1021B400FFF77EFC06FB0055A86804F0EBF8B9E7CE
:1021C400C94300EB830006F022FBE1E7BDE8F0879A
:1021D40010010020E80A002008B501F061F9064B5F
:1021E400D3E8AF2F02F00B02D3E8EF1FC3E8E02FD0
:1021F4000028F9D108BD00BFD400002010B5C1E902
:1022040000239DF808300C460B72FFF751FC0C229A
:10221400024B02FB00335C6010BD00BFE80A0020E3
:10222400F8B502460B46104806F0DCF90446C0B186
:1022340004210C3006F009FA2046FFF739FC0C277C
:1022440000260A4D07FB005046802046FFF730FC6D
:1022540007FB005086602046FFF72AFC07FB005569
:102264006E602046F8BD00BF30030020E80A00205D
:10227400034B0146D3F8340182689268104700BFCB
:10228400000000202DE9F04100F10C060446304620
:1022940006F01FFA012105463046B4F8108006F016
:1022A40000FA238A012B04D82046BDE8F041FFF749
:1022B4009FBC3046022106F0FCF903780646052B44
:1022C40022D00E3B012B21D941F23603104A114989
:1022D400114805F0A3FD002383F31188BFF36F8F2A
:1022E4000323184602DF0227022321460B4A3078D3
:1022F40006F076FABB07D7D56369A4F8108013FA01
:1023040085F5E560BDE8F0810327EDE70127EBE7FC
:10231400E1AE000060AF000043AF000084AC0000F9
:1023240010B50C4604F0AEFCE3681A78042A19D1FF
:102334005B78052B0AD00E3B012B0AD82046FFF709
:10234400A1FF002404F0B2FC204610BD2046FFF794
:1023540099FF2146064806F049F90649064807F060
:10236400E4FEEEE72046FFF743FC6FF01504E9E7CF
:1023740014010020900100204807002008B5042122
:10238400034806F01EFABDE8084001F089B800BF12
:10239400D4000020004870478BAE0000014804F0D0
:1023A400ADB900BF8001002070B505460C4659B98F
:1023B4004FF0FF304FF0FF31FFF732FF044618B9FA
:1023C4006FF06805284670BD2046FFF771FB0C22AC
:1023D400154BA61802FB003330465D8006F079F9F0
:1023E40003280BD90321304606F04AF90580238AD5
:1023F4000121033B8370304606F04AF940F6354329
:102404009D4208D12046FFF733FF054648B12046D8
:10241400FFF7EEFBD6E72146044807F0CEFDFFF7B1
:10242400BDFF0025CEE700BFE80A00201C01002004
:1024340038B502460B46244DD5F81C1109B90020C5
:1024440038BD05F1F80003F0DFFF0028F7D10022C2
:10245400002305F58E7003F06BFF044668B940F65F
:102464001B431A4A1A491B4805F0D8FC84F3118807
:10247400BFF36F8F0323184602DFD5F8100120B194
:10248400FFF7B6FB0023C5F81031204606F0D9F853
:10249400C5F810012046FFF7EBFE98B10E4803F093
:1024A40079FF2046FFF704FB0C220C4B1F2102FB93
:1024B400003022464088FFF717FE2046FFF798FBBE
:1024C400FFF76CFF0120BBE700000020E1AE000035
:1024D40079AF000043AF0000F8000020E80A0020B4
:1024E4002DE9F04F064617460C4687B069B94FF000
:1024F400FF304FF0FF31FFF793FE044660B96FF0F1
:102504006805284607B0BDE8F08F887AFFF7C8FA57
:10251400454B834240F0828001220021684607F047
:1025240065FD2046FFF7C4FA0C23DFF800A103FB86
:1025340000A0C0F808D0204606F083F801463046D3
:10254400FFF732FF054618B12046FFF751FBD8E7E5
:1025540008F0E0F8364B1A58364B9A4220D1DFF88F
:10256400D8B0364807F03EFD002181464FF4A02044
:10257400FFF75EFF804688B94FF4F9735946304A35
:10258400304805F04BFC31462F4805F047FC88F3F2
:102594001188BFF36F8F0323184602DF4C45E0D147
:1025A4004FF4A0220023684603F02EFF804698B122
:1025B4004FF4FC73224A2549224805F02FFC424679
:1025C4003146234805F02AFC002383F31188BFF326
:1025D4006F8F0323184602DF2046FFF769FA0C23A6
:1025E40058431AF80060AEB12046093EFFF700FBDD
:1025F400092E0CD8DFE806F0150B0B08050B0B0BA6
:102604000B126FF00B057CE76FF00C0579E76FF0A8
:10261400040576E7002F97D03C6072E76FF015054C
:102624006FE76FF06E056CE730030020E80A0020C6
:1026340008000000080900207DAF00001C010020F4
:10264400E1AE000043AF000085AF0000A5AF00007D
:10265400AEAF0000F7B5002240F603401146FFF785
:102664003FFF0446002858D1FFF7B6FD214641F24A
:10267400030001AAFFF734FF044600284DD1019A54
:10268400884DD16805F17803D1F80100D1F805101F
:1026940003C31046FFF7ACFA214641F2010001AA38
:1026A400FFF71EFF0446002837D10198C3685A7803
:1026B40085F870205A88A5F872201A7985F8712057
:1026C400B3F80720A5F87420B3F80530A5F87630E0
:1026D400FFF78EFA214641F2020001AAFFF700FF3C
:1026E4000446D0B9019F05F18006FA68531C4132B3
:1026F400344618685968083303C493422646F7D110
:102704003846FFF775FA06F035FA044628B995F805
:102714007C30580604D46FF01204204603B0F0BD98
:10272400214642F2030001AAFFF7DAFE044600281C
:10273400F3D1019A5C4BD168D1F80100D1F80510AE
:1027440003C31046FFF754FA1F23A5F8E83095F8A1
:102754007C30990619D44FF0FF304FF0FF31FFF76A
:102764005FFD0646002800F0998002210C3005F038
:1027740070FF0123447022460370314640F66D40D9
:10278400FFF7AEFE04460028C7D195F89C301A071F
:1027940012D5002142F21C0001AAFFF7A1FE044653
:1027A4000028BAD10198C368D3F80120D3F80530C2
:1027B400C5E93823FFF71CFA4FF0FF304FF0FF3123
:1027C400FFF72EFD0446002868D008210C3005F0E0
:1027D40040FF022700222146077042708270C270B7
:1027E400027142718271C27142F20100FFF778FEF8
:1027F4000446002891D14FF0FF304FF0FF31FFF72E
:102804000FFD0646002849D008210C3005F021FFB1
:102814008023437020230470847004714471847194
:102824002246C770C371314640F60140FFF758FE97
:10283400044600287FF471AF014601AA4FF6014017
:10284400FFF74EFE044620BB0198FFF7D1F921465D
:102854004FF6024001AAFFF743FE0446C8B90198A7
:10286400C368B3F80130A5F8C130FFF7C1F995F892
:10287400C1305B070DD521464FF6034001AAFFF78F
:102884002FFE30B90198C3685B7885F8C030FFF734
:10289400AFF903B0BDE8F04000F0F6BA6FF0680499
:1028A4003BE700BF00000020D800002073B5264D90
:1028B4000646D5F8340107F07BFA00283CD06FF0C7
:1028C400020105F1D40005F0A2FF012105F079FF12
:1028D40010EA010433D11D4B1E600A4605F1F800CD
:1028E40007F084FB05F58E7007F05BFB184807F0D2
:1028F40047FC6FF007034FF496621649144800949E
:1029040003F002FF1449124807F065FCD5F83401BE
:10291400124983681B689847044628B93EB9FFF7F3
:1029240099FE78B9FFF72AFD204602B070BD05F183
:10293400C40003F0E3FEF7E76FF01204F4E76FF06E
:102944007704F1E70446EFE700000020F40A0020D2
:1029540048070020B0150020F3AF00002523000035
:1029640010B5FFF777FE044608B9FFF707FD044BDF
:102974001B681BB12046BDE81040184710BD00BFBE
:10298400F40A0020F7B5144B054693F99B300C4626
:10299400002B1DDA14B9204603B0F0BD082C4FF00B
:1029A400000142F2180001AA264628BF0826FFF7B4
:1029B40097FD0028F0D1019F3246F968284601317D
:1029C40007F0F7FD3846FFF713F93544A41BE1E798
:1029D4006FF08500E0E700BF0000002038B5044632
:1029E40003210C3005F065FEE3680578197840F69C
:1029F4003543B0F8010098420AD02246FFF774FB31
:102A040035B1044803F0C6FCBDE83840FFF7C6BC46
:102A140038BD00BFF800002038B5042104460C304E
:102A240005F047FE4578017822464088FFF75CFBB5
:102A340035B1044803F0AEFCBDE83840FFF7AEBC46
:102A440038BD00BFF8000020F8B506460024094D43
:102A5400EF79E3B29F4202D86FF0010007E0294604
:102A6400304605F0E7FE0735631C08B12046F8BD83
:102A74001C46EEE70000002070B5144E06223146D5
:102A8400044607F0ABFDE0B14FF0FF304FF0FF31EB
:102A9400FFF7C6FB0546B0B1062221460C3005F00F
:102AA400DEFD0022294642F20500FFF719FD48B970
:102AB4003346226843F86929A288B280012283F848
:102AC4006820002070BD6FF06800FBE769000020FB
:102AD40037B504460D4689B12846184905F0AAFEC3
:102AE40060B9174A2968C4EBC4041151A318AA8811
:102AF4009A80AA799A71002003B030BD684605F027
:102B040005FE0028F8D16846FFF79EFF0028F5DA95
:102B14000B4A0098C4EBC40410519DF80610BDF88C
:102B24000400A31898809971002DE4D012592A60EA
:102B34009A88AA809B79AB71DDE700BFAEAE000036
:102B44000000002008B528B1054805F07BFE030607
:102B540001D5012008BD024805F074FEF9E700BF65
:102B6400D400002070B5044611B16FF0150070BD9B
:102B740080B11B4905F05EFE60B92046FFF764FF93
:102B8400002827DA2378012BEFD1A37903F0C003BF
:102B9400C02BEAD1134DEB79012B1ED005F1D400E3
:102BA40005F050FEC30707D4002CDED020460C49A4
:102BB40005F040FE0028D8D1EE792146731C30463A
:102BC400EB71FFF785FF08B93046D0E7EB79013B9D
:102BD400EB71CCE76FF07700C9E76FF00B00C6E745
:102BE400AEAE0000000000202DE9F3410446D8B148
:102BF400002141F2090001AAFFF772FC054698B9C9
:102C0400019E0622D6F80C80104908F101073846C7
:102C140007F0E4FC28B1062238460D4907F0DEFC33
:102C240030B93046FEF7E4FF002002B0BDE8F08181
:102C3400D8F801303046C4F80130BB882570A4F8B8
:102C44000530FEF7D5FF0120EFE700BFBBAE000063
:102C5400B5AE000007B56846FFF7C6FF044BD87150
:102C640018B169460020FFF733FF03B05DF804FB99
:102C740000000020F0B5294D89B0EE79002E46D130
:102C840095F8C230DB0722D56A4631464FF6094033
:102C9400FFF726FCD8B9DDF800C0DCF80C406378F7
:102CA400012B1E4628BF012673B1A31C02AA1234AD
:102CB400174618685968083303C7A3423A46F7D140
:102CC400186838609B88BB806046FEF791FFEE7100
:102CD400002416260127EB79E0B2834202D8B3B16F
:102CE400002012E008AB06FB003353F8182C33F82D
:102CF400143C6946CDF80120ADF805308DF800701C
:102D0400FFF7E6FE01340028E5D009B0F0BD00214C
:102D1400084609B0BDE8F040FFF724BF00000020DA
:102D240010B50C4631B300F009F998B100F1100365
:102D3400184605F087FD01060CD5184605F082FDFE
:102D4400820407D50D4B1B78012B11D101230020E0
:102D540023700CE000F0F2F820B1103005F072FDA1
:102D64000306F3D4002005F07DFD0028EED010BD4D
:102D74000023ECE76FF01500F9E700BF0000002026
:102D84002DE9F0410E4617461D460446002871D031
:102D9400002B6FD00A03037809D54C076AD405F0D9
:102DA40077FD0446002853D101232B700CE0F10772
:102DB4002DD533480FB1B20608D4C3EBC302825CED
:102DC400012A12D002B92A70002441E090F8D820D8
:102DD400510652D5C3EBC302825C012A05D002B965
:102DE4002A702B7843F00203DFE74FF00108072134
:102DF40011FB03810144204605F02CFD044638BB39
:102E040085F80080002FDFD0B206DDD5E9E716F0A3
:102E1400040212D01A49C3EBC3028F5C012F09D1FB
:102E2400072212FB0373194405F014FD044678B914
:102E34002F70E9E7002FE7D1FAE7124805F002FD09
:102E4400830608D4204605F023FD012304462B7095
:102E54002046BDE8F081104600F03AFB06462046C5
:102E640005F016FD044601202870002EF0D100F074
:102E74002FFBEDE76FF01504EAE76FF08504E7E751
:102E840000000020D400002010B50A4CE3790BB1F7
:102E9400002010BDFFF7DEFE0028FAD1E379002BF5
:102EA400F6D1FFF7E7FE0028F3D1601CBDE810401F
:102EB400FFF7E2BD00000020F8B545680646690545
:102EC40035D4046914B115F0010330D0194F3078AA
:102ED400FB7983422BD9C0EBC00007221649384442
:102EE40007F07CFBA8B115F0010306D197F8702018
:102EF400082A02D8B2689F2A19D915F0300F09D0D0
:102F0400ACB1EA060AD405F46035B5F5603018BFF3
:102F14000120F8BDEB0601D4002CF4D1D6E902233C
:102F24009A4204D81F2A02D9B3F5804FEBD9002066
:102F3400EFE700BF00000020AEAE0000004870477D
:102F440018000020F0B5054685B00F4805F0CFFC09
:102F54001F460306164613D50B4805F0C8FC044665
:102F64000A4805F0B9FDC4F3C0240A46029033466A
:102F74002946CDE90074054805F03CFD05B0F0BDD7
:102F84006FF00A00FAE700BF2800002018000020B4
:102F94002DE9F04FD1F810A08BB0BAF10005064628
:102FA4007C4818BF0125059305F0A1FC40070C4699
:102FB400934640F1E6800846FFF77EFF28B96FF09C
:102FC400150528460BB0BDE8F08F2046FFF7BAFD83
:102FD40081460028F3D006F11008404605F087FC2E
:102FE4000106C0F3C01300F1CF80CDE90733CDF85B
:102FF4002330A3686068ADF81830E3686FF480711B
:10300400ADF81A3005F064FC8DF82500614805F030
:1030140071FC2378604A337082F86F3030462A4658
:1030240061680DF11D03FFF7ABFE05460028C8D10A
:1030340006F10903BAF1000F18D02269204611687D
:10304400C6F809109188998092799A7105F054FD17
:1030540063680746DA071BD4980503D4149B0BB99D
:10306400022F49D102238DF81C3023E04B4A20461D
:103074001168C6F809109188927999809A7105F0BF
:103084003BFD63680746DD07E6D58DF81CA011E01B
:1030940013F0100F0CBF01230423A9468DF81C3034
:1030A40023691A68CDF81E209A88ADF822209B79EE
:1030B4008DF824304FF0FF304FF0FF31FFF7B0F8B8
:1030C4000546002863D00F2206A90C3005F0C7FA84
:1030D4002946002242F20600FFF702FA05460028BC
:1030E4007FF46FAFBAF1000F0CD00121304605F028
:1030F40013FDF0B1054664E70323DDF850908DF825
:103104001C30D7E7159B594600933046CDE901970B
:10311400149B059A05F06EFC0028EBD10121304682
:1031240005F0FAFC0028E5D1606880F00200C0F3E5
:10313400400000F001020E21404605F048FC7B1ED1
:103144005A425A414046082105F041FCB91E4A4200
:103154004A414046092105F03AFC626840460A218A
:1031640002F0010205F033FC4A4640460B2105F00B
:103174002EFC62680D214046C2F3800205F027FC54
:103184001FE76FF00A051CE76FF0770519E76FF08A
:10319400680516E7D400002000000020AEAE000051
:1031A40073B51546069A0C46CDE900322B460A46FD
:1031B40001461148FFF7ECFE21460646002340F283
:1031C40001109D4202D1304602B070BD0A8882428D
:1031D40004D14A6812B11278D20702D401330831FB
:1031E400EFE70649064806F0D1FF4FF470220023AA
:1031F400034803F033FBE6E7180000206F8B000060
:103204003000002010B5124805F0ACFC6FF480418A
:10321400104805F06FFB0F4805F069FB020613D553
:1032240000210B4805F078FC044670B90A4805F003
:103234005EFB830608D5204600F04AF9204605F0D7
:1032440011FB012000F044F90024204610BD00BF0A
:103254001800002028000020D400002070B5054686
:103264000E464FF0FF304FF0FF3186B0FEF7D8FF27
:103274000446A0B102210C3005F0EBF9094A46706E
:10328400057003A9204605230095FEF7B7FF002229
:10329400214642F20C00FFF723F906B070BD6FF02F
:1032A4006800FAE7D400002008B50C4B0246400938
:1032B40003EB800005F05BFC02F01F0340FA03F30C
:1032C40013F0010006D122B9054805F050FC40F383
:1032D400C01008BD6FF07700FBE700BFF80A0020BC
:1032E400D4000020084A430902EB8302012300F0C2
:1032F4001F008340DB43D2E8EF0F1840C2E8E10F20
:103304000029F8D1704700BFF80A002030B587B013
:10331400002200235C4802F043FF002840F0928022
:103324005A4805F024FC10F00103584D45D02B1DDC
:1033340093E8070006AB03E90700554805F017FCBE
:10334400C0F34013514805F012FC014600286BD02D
:1033540073B10C224F490DEB020007F03FF900282E
:103364006BD000210846FFF779FF0446002865D199
:103374000023ADF80930BDF80E309DF80C00ADF80F
:103384000530BDF810308DF80400ADF80730431E49
:1033940058420DF109015841FFF7C2FC04460028C8
:1033A4004CD14FF0FF304FF0FF31FEF739FF0546A7
:1033B400002849D16FF0680440E0354805F0D7FB98
:1033C40010F0800F344A0ED04FF480749089D18964
:1033D4001269ADF80C40ADF80E00ADF81010ADF860
:1033E40012300592A9E72D4C03AB2068616803C332
:1033F400A068186092F8D930180748BF05232348FD
:1034040048BF8DF80D3005F0B2FB810706D5302397
:10341400ADF810306023ADF80E308EE71B4805F090
:10342400A6FB4207F3D488E73BB1FFF717FF044636
:1034340020B9184B2861C3E901000024124802F0A6
:1034440027FF204607B030BD072201A90C3005F044
:1034540006F92246294642F20B00FFF741F80446DA
:103464000028EBD19DF80D10012001F00101FFF7B8
:10347400F5FE04460028E1D1064B06AA12E907002E
:1034840083E80700D9E700BF140B0020F80A0020E6
:10349400D4000020080B00200000002078AB0000BE
:1034A40010B5094C44220021204607F08FF804F19E
:1034B4001C0006F0E5FC04F1300006F0E1FC0022FB
:1034C400024B1A6010BD00BFF80A0020440B002014
:1034D400044B0038597C18BF012001F00101FFF7AB
:1034E400BDBE00BFF80A0020032838B5054603D145
:1034F400BDE83840FFF70ABFFFF7D6FE0446A8B977
:103504000B4B6A0903EB8203012205F01F018A4079
:10351400D3E8EF0F1043C3E8E10F0029F8D1FFF718
:10352400F5FE044610B12846FFF7DCFE204638BD00
:10353400F80A00202DE9F04F00F10C08044689B088
:10354400404605F0BEF80646DFF854B116B909B096
:10355400BDE8F08F534805F00AFBC107F7D5238A6D
:10356400082BF4D90921404605F0A3F8037A228AEE
:1035740001339A420546EAD30123ADF81C307F2378
:103584008DF81630037A471C03445B7A8DF81530A6
:10359400FF238DF814300023ADF81A300278042A82
:1035A40098BF414B8DF8172098BF9B5CADF818303D
:1035B40090F808A03B4805F0DAFAC20703D5BDF835
:1035C40018305B0763D4384605F0B9F8002848D0B2
:1035D400394602A805F0A8F8DBF80030A3B140464C
:1035E40005F077F88146278A43469DF817209DF910
:1035F4001510DBF800C0A4F810A002A8E047636926
:10360400278213FA89F3E36002AB0493274B1B6808
:10361400002B3AD01A6802B1083A53F8081CB9B121
:103624001746A3F108024046019205F052F881467C
:10363400019A238AA4F810A01268414604A80093B2
:1036440090476269009B12FA89F2E2603A4623824B
:10365400DAB197681368B7B1083F002BE3D13A4653
:10366400F7E76B78FF2B09D1114B186802909A8801
:103674009B79ADF80C208DF80E30ADE7394605F096
:10368400E4F80346F1E7002BCDD100230493297A13
:1036940040460131013E05F004F8F6B256E700BF9A
:1036A400440B0020F80A0020FCAF00003C0B002073
:1036B400AEAE0000F8B50546224805F058FA4307B7
:1036C4000F463CD52A78012A03D96FF01504204609
:1036D400F8BD6B780F2BF8D843F6FC746888031F89
:1036E4009BB2A342F1D8A9880B1F9BB2A342ECD88A
:1036F4008842EAD37AB900220023134802F050FD2D
:1037040004460028E3D1FFF7CFFD044640B10E483C
:1037140002F0BEFDDBE705F0D2F80028EBD1D4E7D8
:1037240028686968094E0A4B03C6A8681F603060A0
:103734002046FFF7D9FE044606F12400E8E76FF0BF
:103744000A04C4E7D4000020280B0020FC0A00204F
:10375400440B00202DE9F74F1746D2F810A0027849
:103764000646042A0D4601F1FF3325D0052A71D0FF
:10377400022A49D1032B47D9002200230820FEF74F
:1037840011FC044600283FD00422D6F8013000F191
:103794000C0840460DEB0201019304F060FFBDF8F4
:1037A4000630053D9D4244D1404604F096FF8542D3
:1037B4003FD82A46711D42E0012B25D943783E2B80
:1037C40025D190F803B0ABF10203D3F1000B4BEB1E
:1037D400030BB6F80130033DB5EB132FADF80430FD
:1037E40012D1BBF1000F15D04FF000084FF00009C3
:1037F40042464B4659469DF80400FEF7EBFB04464F
:1038040058B9BBF1000FF3D003B0BDE8F08F4FF00F
:10381400000BDEE74FF4A028E8E700F10C080222D1
:1038240001A9404604F01BFF404604F056FF8542C0
:1038340003D92046FEF7DCF9E6E72A46F11C4046A8
:1038440004F00DFF21463846DAF8003003B0BDE835
:10385400F04F1847032BD7D9002200232020FEF76E
:10386400A1FBDFF83C90044698B10422D6F801305D
:1038740000F10C0840460DEB0201019304F0EFFE49
:103884000023C9F80030BDF80630053DC3F30D032D
:1038940088E7D9F800300133C9F80030B4E700BF35
:1038A400480B0020102208B5034B0120C3F8402424
:1038B400FEF7D6FA002008BD00300050084B70B562
:1038C400C31A0D4607499B10044659434022064833
:1038D40005F0BEF92B4601462046BDE87040184766
:1038E400600B0020B76DDBB6ACA70000402373B5B6
:1038F4000B4C0093041B0B460D460A49A41061436C
:103904000646094A094805F0CFF9011E05DA304692
:103914002B4602B0BDE87040184702B070BD00BF2E
:10392400600B0020B76DDBB6178D0000ACA700005C
:1039340010B5EFF31184202383F31288BFF36F8F44
:10394400074A136823F00201DB07116002D4012047
:1039540005F045FB84F31188BFF36F8F10BD00BFE2
:10396400000C00202DE9F843002201210646052021
:10397400FDF7BEFD114801F0B7F8114B984219D17B
:1039840001F0C2F800244FF01C090C27DFF8348042
:103994003569414609FB045004F09CFA002807DB12
:1039A400012307FB04551C44042CAB67F0D1002011
:1039B400BDE8F8836FF00400FAE700BFCD3A0000D9
:1039C4000000AD0BC4AC00007FB500220123CDE99B
:1039D400022304ABCDE90433094A6B46CDF800D089
:1039E400CDF804D005F08EF9002805DB4FF48042B1
:1039F4000023684602F008FD07B05DF804FB00BF31
:103A04004D8D00000C22104B014602FB00330020B8
:103A140030B4D3E91C521867EFF31180202484F3E7
:103A24001288BFF36F8F9C6F04F0C00444F002044B
:103A34009C6780F31188BFF36F8F1DB12B4630BC98
:103A44000248184730BC7047600B0020ACA7000048
:103A540010B4EFF31182202383F31288BFF36F8F26
:103A64001748016841F002040460C80707D482F3D0
:103A74001188BFF36F8F012010BC01F05DB84FF0C7
:103A84005021D1F80C04D1F80C14C907EFD5EFF389
:103A9400118083F31288BFF36F8F0A498B6F03F091
:103AA400C00343F002038B6780F31188BFF36F8F69
:103AB40082F31188BFF36F8F002010BCFFF7A2BF01
:103AC400000C0020600B0020092813D8DFE800F068
:103AD40005101212121212120E0C074B986F10F0EE
:103AE400070007D1FFF78EBF0220FBE70320F9E7A9
:103AF4000120F7E7704700BF600B00202DE9F0417B
:103B0400012207463649D1E8EF3FC1E8E02F0028FB
:103B1400F9D133B9334934484B60CB608A6004F03F
:103B2400ECF97B1E012B2BD8012F07D14FF050232A
:103B3400D3F81C3403F00303022B21D006F045FB19
:103B44000546F8B9294B1B78E3B14FF05023022204
:103B54000646C3F808234FF05024DFF89480D4F8C5
:103B64001824D4F81834D20315D503F00303022B18
:103B740001D0012F0FD16DB386F31188BFF36F8F7E
:103B8400BDE8F081EFF31186202383F31288BFF39D
:103B94006F8F0125DFE7C5B1304604F0DAFCD4F8B5
:103BA4001835DBB2012BDAD1D4F80421002AD6D09F
:103BB4000022C4F80421D4F804210222C4F81825F0
:103BC4002022C8F88021A360C9E70021212006F043
:103BD4009BFBE4E74FF050230222C3F80423CFE712
:103BE4005C0B00204C0B00207C0B0020A711002054
:103BF40000E100E008B5074806F0DAF838B10648F5
:103C0400FDF714FF0448FCF72BFE002008BD6FF0FD
:103C14001200FBE72CA80000213C00000A2838B55C
:103C24000446074D04D1AB680D2128465B689847CC
:103C3400AB6803485B68E1B29847204638BD00BFD3
:103C44002CA80000F0B51646426801F01F04107B52
:103C540087B044EA40141069002871D0B6F5001FFB
:103C640002F1100506D12146284605F038FA002055
:103C740007B0F0BD0027B6F5800F01A80197476093
:103C840039D1B3F1007F14BF052304238DF8043028
:103C94000023CDE90403039393680DF1030723FA8A
:103CA40001F111F001013DD1B6F1A07F3AD104F048
:103CB4001F03620903F1800328D0012A46D1254A53
:103CC40052F82330DB072DD43A462146284601F02A
:103CD40039FA214B98421BD002972146284603AA61
:103CE40001F0ECF81D4B98422DD1012221462846C3
:103CF40001F08AFABBE7B3F1C06F05D0B3F1007FDE
:103D040014BF01230223C1E70323BFE7144AD7E703
:103D14003946284601F072FA104B9842DCD06FF015
:103D24000B00A5E73A462146284601F00BFA0B4B57
:103D34009842D2D128469DF8031001F059FACCE7F5
:103D44006FF0850094E76FF0150091E751F8233088
:103D5400FFDE00BF002884500400AD0B0000AD0B53
:103D6400002584504209034670B502D0012A17D0B9
:103D740070BD0D4E326951680029F9D0012503F058
:103D84001F030C689D400029F2D08A682A4002D0A3
:103D940030464B6898472CB1236821461C46F2E70D
:103DA400024EE7E72346F8E7ECA70000CCA70000A3
:103DB40038B545682B69B3B11035284601F00EFAC1
:103DC400044680B90146284601F0D6F9084B9842CA
:103DD4000BD122462846074901F0AEF922460521B7
:103DE4000D20FDF785FB002038BD6FF00400FBE7D4
:103DF4000000AD0B693D00002DE9F04340F20635AB
:103E04004668D00648BF0320337B02EA050558BF45
:103E1400C2F3401087B001F01F07B5F5837F144645
:103E240047EA43178DF8030044D00DD8062D16D069
:103E340005D8A5B1022D3FD06FF0150037E0B5F5D8
:103E4400807FF9D101250AE040F20222954235D063
:103E5400B5F5407F34D0B5F5007FEDD102250123BF
:103E6400220303FA01F12DD573689960326982BB8C
:103E740007F01F037F092AD0012F77D13D4A02EBB7
:103E8400830284F48033D2F80012C3F30043C4F3F2
:103E9400404444EA430421F4706144EA800421F07C
:103EA4000F0144EA05230B43C2F80032002007B097
:103EB400BDE8F0830725D2E70425D0E70525CEE742
:103EC4000325CCE7630344BF7368D960CEE72A4A6D
:103ED400D5E71036394630460DF1020201F032F9C9
:103EE40014F4403F80460CD13946304605F0F5F8CD
:103EF400224B9845DAD130469DF8021001F078F94A
:103F0400D4E74FF0000901AB3946304603AACDE9A6
:103F14000439CDE90199CDF80C9000F0CFFF174B8F
:103F24009842C3D114F4003315D09DF8033084F4BF
:103F34008034C4F300448DF80E3039464B46304685
:103F440003AA8DF80C508DF80D4001F073F80B4B5B
:103F54009842ABD1CCE7CDE9043339460DF10303E4
:103F6400304603AA039300F0A9FFF0E7803352F828
:103F74002330FFDE00288450002584500000AD0B60
:103F840010B504460269A2B0C2F8800016490020A8
:103F940001F06AFA002201212A20FDF7A9FA8422FD
:103FA400002101A8646806F011FB0023012001AA86
:103FB40061680432D940C90744BF00FA03F142F8EA
:103FC400041C2168D940C90748BF00FA03F103F172
:103FD400010348BFD163102BEAD101A801F05CFAB8
:103FE400002022B010BD00BFF98D0000036803F06B
:103FF4001F025B09026004D0012B034818BF002094
:1040040070470248704700BF002884500025845040
:104014002DE9F04F1546834640F2FF18DFF88891EA
:10402400DFF888A185B000EB8101594503D1002058
:1040340005B0BDE8F08FDBF80030C3F3C322082AD3
:10404400C3F3080400F2AA801B0E444508BF4FF0D6
:10405400FF3419F80270222B00F2A380DFE803F08A
:1040640012191F22252B22A1A1A1A13A67A1A1A166
:10407400A1A1A1A1A1A16A7F8285A1A1A1888F92FA
:1040840095989B00C5F80C45601C5DD10BF1040BA1
:10409400CBE7C5F81445621CF8D000265DE0C5F8EE
:1040A4000845F1E7C5F81045F5E7631CC5F8084570
:1040B400ECD0002604E0661CC5F80C45E6D00126C9
:1040C40003A80394FFF792FF0122039B02FA03F370
:1040D400C36008E0C5F80845002FDCD1631CD5D0C7
:1040E400002606273246DBF80030039403F4004030
:1040F400002818BF002203A818BF012601930092CC
:10410400FFF774FF039C019B00EB8400D0F800428E
:10411400C3F3412C009A3B0243EA8C03134304EAA1
:104124000A04234343EA4603C0F80032AEE7C5F865
:104134000C45D1E7C5F86045601CDBF80030A5D01C
:10414400C3F30043002BBAD0012603A80394FFF75E
:104154004DFF039B06FA03F383603246C3E7C5F8B9
:104164006445E9E7C5F86845E6E7C5F86C45E3E763
:10417400C5F82445621C89D001260022B3E7C5F89E
:10418400284581E7C5F83045F4E7C5F83445F1E73B
:10419400C5F83845EEE7C5F83C4575E76FF01500FE
:1041A40046E76FF0850043E755B00000F0F0FCFFF0
:1041B4002DE9F04104460D46476806F006F84FF035
:1041C400200888B9264B1B7873B16426606804F014
:1041D400B1FEF0B9012004F0EFFE013EF6D100215A
:1041E400212006F091F8F0E7EFF31186314688F3C9
:1041F4001288BFF36F8F606804F09CFEA8B986F341
:104204001188BFF36F8FEFE786F31188BFF36F8FC9
:10421400E5E7EFF31186314688F31288BFF36F8F19
:10422400606804F087FE0028EED0FB6900201D7052
:104234006368FA691B68C3F844250122C3F848255A
:10424400C3F82001D3F82041C3F85801D3F858012A
:104254009A6081F31188BFF36F8FBDE8F08100BFCE
:10426400A7110020F7B50546002201210820FDF71B
:104274003FF90820FDF70CF96B681A691868C0F853
:104284002425997D5A7D0A43198B1B7D0B431343C7
:10429400C0F86C356E68D6E9004313F0010348D0CA
:1042A4002F6907F1080000F09FFB304B98425AD168
:1042B400387A04F10C0204F5907104F089FE387A1E
:1042C400012707FA00F000F089FB0823C4F8003541
:1042D400F369C4F844350023C4F84835A760D4F81A
:1042E4005831002BFBD00021C4F800156B6801AADB
:1042F400DC68204604F0F1FD002805DB019B226800
:1043040019791868FFF784FE08216A681368C3F8EE
:104314000015117A51B9126AC3F834250122C3F881
:104324003825C3F81011D3F810111A60002003B017
:10433400F0BD0822C4F80025F269C4F84425C4F885
:1043440048350123A360D4F82031002BFBD000238F
:10435400C4F82031D4F820310123E3604FF4807392
:10436400C4F80433BBE76FF00400E0E70000AD0BD2
:104374000123834070B5DC430B4AD2E8EF1F01EA06
:104384000405C2E8E65F002EF7D14FF48032824084
:104394000648C0F80823BFF35F8FBFF36F8F0B424B
:1043A40014BF0120002070BDB40C00200050015047
:1043B40070B40E4922F07F46D1E90034D01AC318F4
:1043C40044F10004C1E90034A6F50013B3F5400F2D
:1043D40009D2074B1B681A0A1B069C19054B42F1AC
:1043E4000005C3E9004570BC02F054BFF807002083
:1043F400B80C002000080020D9B101230D4A8340E5
:10440400D2E8EFCF4CEA030CC2E8E1CF0029F7D1A0
:104414004FF48033084A8340C2F80433074BD3E88F
:10442400AF3FC340DB0742BF4FF40012044BC3F855
:1044340000217047B40C002000500150B00C002043
:1044440000E100E00D4B1868010A0006BFF35F8F1E
:104454000B4BD3F80435181841F10001B3F5801F54
:104464000AD2084BD3E90023904271EB030303D231
:1044740010F1807041F10001704700BFB80C0020BA
:1044840000500150000800202DE9F04F85B0164679
:104494001F4604469DF840A0FFF76AFF0190FFF70E
:1044A400D1FFB04271EB070352D23B4B301A67EB9A
:1044B4000101984271F100014DD2384B03EB041312
:1044C400D3E902239F4208BF964258D04FF4803864
:1044D400334908FA04F8204626F07F4BC1F8488394
:1044E40004F059FD4FF00309584604F15005AD009E
:1044F400ADB205F1502504F5A87305F58035029396
:10450400029A20F07F4341F82230C1F84483D1F865
:104514000435244AC01A033820F07F4090422ED933
:10452400286868B1D1F80435A3EB0B0020F07F4074
:10453400B0F5000F039322D9204604F02CFD039B11
:10454400BAF1000F07D109EB030009F10109D7E71C
:10455400BAF1000F09D06FF0150520460199FFF755
:104564004BFF284605B0BDE8F08F01230E4AA34057
:10457400D2E8EF0F1843C2E8E10F0029F8D1074948
:104584000E982301C8500F9B01EB04120025C2E9C9
:1045940002675360E1E700BF01008000E8070020E4
:1045A40000500150FDFF7F00B00C00207FB50025B6
:1045B4004FF0FF304FF0FF31194C1A4B0226C4F86C
:1045C4000833C4F84833184BC4F80855C3E902014A
:1045D4004FF480334FF40012C4F80433134B012119
:1045E400C4F804631520C3F880212A46FCF780FF31
:1045F4001520FCF74DFF01230D4AA36023601360CF
:104604000C4B0D4A009328460023CDE90155FFF7D2
:104614003BFF3046FFF772FA284604B070BD00BF76
:104624000050015003000F00E807002000E100E003
:10463400B40C0020B5430000FFFF7F002DE9F743D1
:104644002E4BD3F8042390070BD5D3F8042142B1A1
:104654000022C3F804212A4AD3F804311368013331
:104664001360264AD2F80433D90326D5254BD3E860
:10467400EF1F21F00100C3E8E40F002CF7D1CB07B2
:1046840002D4D2F84031C3B100251C4CC4F84051C7
:10469400D4F84031FFF7D6FEEFF31182202383F3E1
:1046A4001288BFF36F8F184BD3E90267B042B94148
:1046B40006D282F31188BFF36F8F03B0BDE8F08395
:1046C4004FF0FF38D3E900104FF0FF391D60C3E904
:1046D40002894FF48033C4F84833C4F84051D4F805
:1046E400403182F31188BFF36F8F0029E5D0009029
:1046F40032463B4628468847DFE700BF005001505A
:10470400B80C0020B00C0020E807002030B5431C92
:10471400124C85B005D08442A8BF0446012CB8BF12
:104724000124FFF78FFE0E4B0C4DD3E90013401A02
:10473400B0F5000F0FD22218AA4228BF2A46002043
:1047440052180849CDE90100009143F10003FFF735
:104754009BFE05B030BD2A46F1E700BFFFFF7F0096
:10476400F8070020B543000008B5FFF76BFE024BC5
:104774001B68C01A08BD00BFF80700204FF47F0370
:10478400D3F83021D3F83431072A05D1023B032B67
:1047940002D8024AD05C70470020704770B0000015
:1047A40008B5FFF7EBFF58B1644BD3F8202A3AB9A8
:1047B4000D21C3F8201A0121C3F81C19C3F81C29C0
:1047C4000022D30003F57F03D3F80013013107D08F
:1047D400D3F800130132D3F80433202A0B60F0D14C
:1047E400FFF7CCFF002840F0A080FFF7C7FF40B1DF
:1047F400534B544AC3F830254FF050230122C3F8D9
:1048040058254FF47F03D3F83021D3F83431072AE5
:1048140009D1023B032B06D84B4AD35C1BB10022BF
:104824004A4BC3F84C25FFF7A9FF50B14FF0502372
:10483400D3F80024D10742BF0022C3F81421C3F8DF
:1048440018214FF47F03D3F83021D3F83431072AE9
:1048540009D14FF05023D3F80024D20744BF6FF09E
:104864000102C3F80024FFF789FF18B16522334B16
:10487400C3F80C274FF47F03D3F83021D3F8343135
:10488400072A16D1314BD3F82034002B11DA4FF01C
:1048940050230322C3F8182501229A60D3F8042177
:1048A400002AFBD00022C3F804210122DA60C3F8F5
:1048B40018254FF47F03D3F83021D3F83431072A75
:1048C40023D1023B032B02D8214AD35CEBB17E22D5
:1048D4001A4B1B49C3F80C27C3F83C297F231D4AF4
:1048E400C2F818310023C1F8043EC1F8083E01F5AE
:1048F4004821C1F81031C2F82431C2F82C3102F534
:10490400FF1202F58052C2F8A032134AD2F88C305A
:1049140043F44063C2F88C30104A114B1168C3F859
:104924004415D269C3F84C2508BD2922034BC3F8AA
:104934000C270322C3F83C2757E700BF0040005070
:10494400009003504400EFBE6CB000000020035000
:1049540068B000000020005000ED00E00080FF007F
:104964000060005030B50468ACB1B4FA84F301229D
:10497400C3F11F03DBB29A4024EA0202D0E8EF5FDE
:10498400A54204D1C0E8EC2FBCF1000FF6D1EAD166
:1049940002480B7030BD0248FCE700BF0000AD0BBD
:1049A4000200AD0B10B50368CB40DB0710D4012324
:1049B4008B40026843EA0201D0E8EF4F944204D1ED
:1049C400C0E8EC1FBCF1000FF6D1F2D1014810BDD4
:1049D4000148FCE70000AD0B0400AD0B014BC3F82C
:1049E40004057047007001500146014800F044B9C5
:1049F400F00100200328F7B506462ED84FF05021C9
:104A0400364B374A33F81000925DC1F8080300258D
:104A14000A44012142F210744FF05027314B1160C7
:104A240033F816308E4203F150231D601B688DF855
:104A3400071008BF0DF10705022E32D0032E40D017
:104A4400012E1CD0D7F8183403F480333DB923B1B8
:104A5400012004F0B1FA013CF0D103B0F0BDD7F865
:104A6400182402F003022A70002BF6D09DF80700E8
:104A74000128F2D104F0A0FA013CDDD1EDE7D7F82A
:104A84000C3403F480333DB9002BE6D0012004F04C
:104A940093FA013CF3D1E0E7D7F80C2402F00102C9
:104AA400E1E7D7F85C3403F480333DB9002BD4D06C
:104AB400012004F081FA013CF3D1CEE7D7F85C245D
:104AC400ECE7D7F85434DB03C7D5002DCED1012051
:104AD40004F072FA013CF4D1BFE700BFB4AD0000AA
:104AE40074B00000ACAD0000044B1A7922B9012265
:104AF40018601A710248704702487047BC0C0020C5
:104B04000000AD0B0C00AD0B08B50A4B1B6833B1AC
:104B14000520FCF7DFFC10B90520FCF7B9FC4FF0C9
:104B240050230122C3F81825C3F81425C3F880259F
:104B340008BD00BFBC0C002010B5032845D8DFE831
:104B440000F01802554F00224FF480730121002019
:104B540003F1502318601C68012402F150221460F0
:104B6400284A1268002A47D04FF05023C3F8041390
:104B74002BE04FF05023D3F81814D3F81824C903AA
:104B840012D502F00303022B05D0012B02D0002022
:104B9400FFF730FF01234FF050220221C2F81835ED
:104BA40008224FF48273D2E7D3F81424D207F1D544
:104BB400D3F81C2402F00302013A012AE7D8114A6F
:104BC40012681AB10222C3F8042310BDD3F80421D9
:104BD400002AFBD00022C3F80421D3F80431F4E7FF
:104BE40018224FF490734FF48071B0E720224FF4F1
:104BF40092734FF40071AAE71A68002AFCD0186077
:104C04001B68E2E7BC0C0020F8B54FF050230125E7
:104C14000026D3F80443174F04B9F8BDB4FA84F05E
:104C2400C0F11F00830003F580739BB203F150238E
:104C340005FA00F2196892B224EA02040029EBD0C2
:104C44001E601B684FF05023022AC3F808230DD1BD
:104C5400D3F81814D3F8181401F00301012905D16D
:104C6400C3F81825C3F804239960D5E73B68C0B29C
:104C74009847D1E7BC0C00200079024B03EB0010ED
:104C8400FFF770BEF8010020036803F01F025B0900
:104C9400026004D0012B034818BF0020704702486B
:104CA400704700BF0028845000258450034A4309FC
:104CB400D35C00F01F001844C0B2704778B0000005
:104CC40070B50546FFF7F2FF0C4C083034F810308D
:104CD4000E46DA0508D5C3F3432304EBC302284682
:104CE40054F8333052689847A3682BB131462846AC
:104CF400E268BDE87040184770BD00BF080200209C
:104D040008B5FFF7D3FF034B083033F81000400B0E
:104D140008BD00BF0802002008B5FFF7C7FF034B1A
:104D2400083033F81000C0F3400008BD080200202A
:104D340008B5FFF7BBFF034B083033F81000C0F38E
:104D4400401008BD08020020034611F0010010B510
:104D5400CCB20BD1A207C4F340000DD5074A106AA8
:104D640058601062003818BF012005E004490A6A3F
:104D74001A600A62002AEDD010BD00BF00288450DA
:104D84000025845010B5FFF791FF124A083032F81D
:104D94001030D9051CD5C3F3432123F4F85322F86A
:104DA4001030002002F10E0434F8023F13F4807F27
:104DB40003D0C3F3432399420AD001303028F3D1FE
:104DC400002342F831300448BDE81040FFF7EABD43
:104DD40010BD00BF0802002080020020F0B5054687
:104DE40000200126044607468C420BD1114BD3F810
:104DF4007C2132B10022C3F87C21D3F87C3140F00D
:104E04000040F0BDE3B29B0003F580729B0806FAF4
:104E140003F31D420BD002F1A04202F55042D2F836
:104E240000C0BCF1000F02D01760126818430134AF
:104E3400DAE700BF00D00050F7B506460846FFF792
:104E440035FF1A4F00F1080537F815300C46DB071B
:104E54002AD5304604F01DF92046FFF769FF58B102
:104E64002046FFF74DFF0022316800B201EB8003BA
:104E7400C3F81025C3F810252046FFF783FF00234D
:104E840001A827F815300194FFF7FEFE019B00EB03
:104E94008300D0F80022064B134043F00203C0F80D
:104EA4000032044803B0F0BD0348FBE708020020C9
:104EB400F0F0FCFF0000AD0B0400AD0B2DE9F04356
:104EC4001646804685B00846FFF7F0FE0D46316869
:104ED400044609B32846FFF71FFF18B12846FFF719
:104EE40027FF10BB00230DF10F02CDE900338DF82D
:104EF4000E308DF80F3028460B460DF10E0104F0EC
:104F040070F8484A04F1080132F8113023F0020322
:104F140043F0010322F8113073687BB328461F78ED
:104F24005968FFF7F9FE10B1E9B13F4829E03D4A5D
:104F340004F1080032F8103023F02003DB04DB0C0A
:104F440022F8103079B1032FEFD87168D1F804E05A
:104F5400D8F800109EF800C001EB8C01A7B9C1F885
:104F64001075C1F810752F4A04F1080132F8113098
:104F740023F01C0343EA870322F81130B3683BBBD8
:104F84002A4805B0BDE8F083D1F810E543EA4C3374
:104F94002EF0030EC1F810E5D8F8001043F02003FA
:104FA40001EB8C0EDEF8101522F8103021F44F318D
:104FB40021F44071CEF810152902DEF8108501F4B1
:104FC4007C5141EA074141EA0801CEF81015CAE7CD
:104FD4002846D3E90067FFF7D5FE002ED0D0114D47
:104FE400D5E90023964203D19F4201D1002209E072
:104FF4000F480DF10F01FFF7B5FC0C4B9842C0D1DF
:105004009DF80F2005EBC20308345F6035F81430B7
:1050140045F8326043EA422343F4807325F81430A0
:10502400AEE700BF080200200400AD0B0000AD0B8A
:10503400800200202DE9F0430C46804685B02046CE
:1050440011461D46FFF732FE064629B32046FFF7F8
:1050540063FE18B92046FFF76BFE18BB334F06F109
:10506400080937F8193013F01C0F02D04B78012BC4
:1050740018D001238DF80F3000234A1CCDE900130A
:1050840020468B1C0DF10F0103F0ABFF37F81930EC
:1050940043F0030327F81930002D44D02046FFF7CE
:1050A4003BFE18B9224805B0BDE8F083002295F80C
:1050B40000C0D8F800301D4F03EB8C03C3F8102553
:1050C400C3F8102506F1080237F812104FEA8C0EC7
:1050D40021F02001C904C90C27F812106E7816B308
:1050E400D8F80000AD787044D0F81035360423F4B5
:1050F400991323F4F853C0F81035230203F47C53B6
:1051040006F440362D05D0F810E5334305F4801538
:105114002B4341EA4C3143EA0E0341F02001C0F82D
:10512400103527F812100348BDE700BF080200201D
:105134000400AD0B0000AD0B014BC3E90212704734
:105144000802002010B508461446FFF7F1FD50B1DF
:105154000846FFF7ABFD054B083033F81030044820
:105164005B0B237010BD0348FCE700BF080200205E
:105174000000AD0B0400AD0B70B5154D064695F857
:1051840080401CBB2146602205F1100005F01EFA88
:10519400214630682E6F8E420ED10023C0F87C3138
:1051A400D0F87C3140F30730FCF772F90123094849
:1051B40085F88030AB6770BDCBB29B0003F580727D
:1051C4007C2B04BF845083580131E4E70248F2E7A2
:1051D400080200200000AD0B0C00AD0B034B93F84C
:1051E4008000003818BF0120704700BF080200206B
:1051F4000148FFF7D7BB00BF7C0200200148FFF73E
:10520400B1BB00BF7C02002073B503681646D3F817
:1052140004230546002AA8BF4FF000420846A8BF51
:10522400C3F804230C46FFF783FD00B30846FFF7D9
:1052340073FD0146D8B92046FFF762FD04B2A4000D
:105244000346286804F580728150296882582144F5
:10525400D1F8102542F00102C1F810252EB1012227
:10526400296802FA03F3C1F8043302B070BD204682
:10527400FFF71CFD0E4B083033F81030C3F38203E4
:10528400042B11D0052B11D001A80194FFF7FCFCCD
:10529400019A0369D34003F00103991C204602B02C
:1052A400BDE8704003F0E6BE0321F7E70221F5E70D
:1052B400080200202DE9F04F674BDFF8A091D3F8E6
:1052C4000403D9F87010C0B289B040F00040FFF771
:1052D40085FD051E2EDACA4600235AF87C1F06A84F
:1052E400CDE90633FFF730FD4FF0000B5C4B0DF1B9
:1052F40018080193019A12F8013B0192DA081AF88E
:10530400022003F0070322FA03F3DA071BD408F19F
:105314000408BBF1000F13D000214FF00040FFF749
:105324005DFDD9F87C1006A8FFF70EFD0028DBD13F
:1053340025F000450124002D76D109B0BDE8F08F99
:105344004FF0010BD6E7474B5B440293D8F80010AB
:105354000029DCD091FAA1F1B1FA81F1029B1C7809
:1053640041EA44142046FFF7A1FC083039F81070D4
:10537400C808BB080393012318F8002001F00701B3
:1053840003FA01F122EA010208F8002005A80594B5
:10539400FFF77AFC059A039B803250F82220C7F36A
:1053A40082065B073746C2F3014222D520463946BE
:1053B400D6B2FFF785FC05A80594FFF765FC059BAD
:1053C400803350F82330C3F301439E4207D10021B8
:1053D400204603F04FFE3146204603F04BFE05A85D
:1053E4000594FFF751FC0122059B02FA03F30362C3
:1053F400ACE7022A0CD10321204603F03BFE06F061
:105404000503012BEBD139462046FFF759FCE6E7AB
:1054140002212046039203F02DFE032EF3D0039ABB
:10542400032ADCD1022EEDE795FAA5F3B3FA83F350
:1054340004FA03F29B0003F1A04303F55043D3F8AD
:105444001005D3F81015C0F30520C1F3014125EA76
:105454000205FFF735FC6EE700D00050080200207B
:1054640088B0000088B0000070B5084C0E4623795F
:10547400154643B92A20FCF70BF80123044823718D
:105484002660A56070BD0348FCE700BFC40C002083
:105494000000AD0B0C00AD0B002330B50D4A50F8E5
:1054A400234003F5A2710133102B42F82140F6D1B9
:1054B4000023084A00F13C0103F5B27451F8045F7B
:1054C4000133102B42F82450F6D1D0F88030C2F8C2
:1054D400043330BD00A002500123024A8340C2F8C5
:1054E4000433704700A002500123024A8340C2F8EB
:1054F4000833704700A00250F8B5012600270B4B73
:105504000B4DD3F80C4304B9F8BD94FAA4F0B0FAE7
:1055140080F006FA00F324EA0304064B82009F504D
:105524002B68002BEFD0A9689847ECE700A0025045
:10553400C40C002000A102502DE9F0410E4617468C
:105544000C4D55F81C4FAC4203D16FF01200BDE86E
:10555400F081314654F8440CA4F14408FAF74AFEA9
:1055640030B9C7F800804046BDE8F04103F089BE79
:105574002468E8E7D00C002010B5D0E909124A608D
:10558400416A00F124031160C0E909334368044609
:1055940003B19847054A936833B11279062A03D9AF
:1055A4000720226802499847002010BDD00C002033
:1055B4008AB000002DE9F04107460D460B4E56F81F
:1055C4000C4FB44202D16FF001000AE0394654F89E
:1055D400240CA4F12408FAF70DFE20B91DB1C5F876
:1055E4000080BDE8F0812468EBE700BFD00C002008
:1055F40038B5044600B30068F0B10378E3B1002184
:10560400FFF7D8FFD8B104F11C03C4E907330D4BED
:1056140004F12402196903F10C00A16260621A61A9
:105624000A609D6835B11B79062B03D907202268CF
:105634000549A847002038BD6FF01500FBE76FF05F
:105644001000F8E7D00C00208CB0000038B5114CE5
:105654000546216819B100200131216038BD24229A
:10566400204604F0B3FF2B682846A3602B792371EE
:1056740004F10C03C4E9033304F11403C4E905334E
:1056840004F11C03C4E9073300F018F80028E5D13D
:105694002168E0E7D00C002038B5074D2C68013CA8
:1056A4002C6044B900F012F821462846BDE8384081
:1056B400242204F08BBF38BDD00C002008B502486A
:1056C400FFF796FF002008BD8C0200200148FFF779
:1056D40053BF00BF8C0200200EB4431E062B33B50B
:1056E40088BF0020094B05AC54F8045B53F8201024
:1056F400074802F086FB214628460194FBF7B6F8DA
:1057040002B0BDE8304003B0704700BF68AD000090
:10571400A7B0000010B50A46044619B1024B002197
:105724001B68984710BD00BFB802002037B50D4D67
:105734000C466B78022B12D12B78072B0FD1002348
:105744000A460193014601AB281D03F0A4FD20B9CC
:10575400019BA34218BF6FF0930003B030BD6FF0FC
:105764008800FAE7F40C002010B5114C2378580790
:1057740044BF23F0040323702378990705D500F070
:1057840059F8237823F00203237063781BB10023B4
:10579400084A636053600023082106486370FFF7DA
:1057A400B9FF2378DA0744BF23F00103237010BD47
:1057B400F40C0020F80C002038B5184C62782378DB
:1057C400022A01D1072B09D09B070AD52378DD07CC
:1057D40013D562782378A2B158071AD50025284634
:1057E40038BD00F01FF82378054643F00203237008
:1057F4000028EBD0FFF7B8FFF1E743F00103237073
:10580400E7E7D907E8D5064962604A600222627078
:10581400E2E743F004032370E0E700BFF40C002048
:10582400F80C00200122024B002083F8402470472A
:10583400000D00202DE9F0410A4C002526464FF0CA
:10584400010803272046C4F81C802776013503F09D
:105854003DFD102D04F14404F4D1002386F84034B6
:10586400BDE8F081000D00202DE9F04F87B0174608
:105874009B460446DDF840A000284BD0056A35B1AC
:105884002D6825B1AC4607B0BDE8F04F6047E36A28
:105894009F4242D80026BE4203D1002007B0BDE893
:1058A400F08F182303FB06F8D4F83090A26909EBB3
:1058B40008052B1D0593CAB9686969680368B5F8BA
:1058C4000CC0C91AAB680CF1030E5D1E05EB0C1578
:1058D4005B4205EB4E051D4005EBCC0385680633A2
:1058E400A94228BF4FF0FF3103F098FC59F8083063
:1058F40020460293236AB1B29B6A01935AF8263078
:1059040000935BF82620059B03F01BFD0028C5D1FE
:105914000136C0E76FF01500C0E70148BEE700BFDD
:1059240040F4FFFF10B5044690B1028D43899A42BA
:1059340009D0084A936833B11279032A03D942681B
:105944000549042098472046BDE8104004F02ABECB
:1059540010BD00BFD00C002042B1000030B5448916
:105964008C4212D9436A013C5D882C4003EBC4038A
:1059740059609A60BFF35B8F426A53880133538046
:10598400438D01334385002030BD0148FCE700BF4F
:1059940041F4FFFF70B4039E144660B1006A50B135
:1059A4004BB1013407D0002E05DBD0F8844014B18C
:1059B400A44670BC6047014870BC70472DF8FFFFD7
:1059C40070B4039E144660B1006A50B14BB1013407
:1059D40007D0002E05DBD0F8944014B1A44670BC67
:1059E4006047014870BC70472DF8FFFF2DE9FF4761
:1059F400DDF834800E4691469A460546002876D056
:105A0400002974D0B8F1000F71D001F16407384651
:105A140003F027FEBAF1FF3F49D1346E06F150027C
:105A240004F18000844204F01F0C07D2C4F3411136
:105A340052F8211021FA0CF1C90736D4012104F0DF
:105A44007F04600952F8203004F5806A01FA0CF1F1
:105A540004F201440B4304F07F0442F8203034661E
:105A64006B6C4A4603930E9B2946CDE901830C9B3C
:105A740030460093534603F0A3FE384600F08AFCF8
:105A84002C7874B196F8A4405CB1AB6A013330D180
:105A94000021284603F024FE044610B1284603F0F2
:105AA400F5FD204604B0BDE8F0870134BAE7BAF545
:105AB400806FD5D3AAF580637F2B06F150010FD8F0
:105AC400580951F8204003F01F0324FA03F2D207C7
:105AD4000BD4012202FA03F3234341F82030BFE739
